:10000000EFC00000F7C00000F5C00000F3C0000022
:10001000F1C00000EFC00000EDC00000EBC0000028
:10002000E9C00000E7C00000E5C00000E3C0000038
:10003000E1C00000DFC00000DDC00000DBC0000048
:10004000D9C00000D7C00000D5C00000D3C0000058
:10005000D1C00000CFC00000CDC00000CBC0000068
:10006000C9C00000C7C00000C5C00000C3C0000078
:10007000C1C00000BFC00000BDC00000BBC0000088
:10008000B9C00000B7C00000B5C00000B3C0000098
:10009000B1C00000AFC00000ADC00000ABC00000A8
:1000A000A9C00000A7C00000A5C00000A3C00000B8
:1000B000A1C000009FC000009DC000009BC00000C8
:1000C00099C0000097C0000095C0000093C00000D8
:1000D00091C000008FC000008DC000008BC00000E8
:1000E00089C0000087C0000085C0000083C00000F8
:1000F00081C000007FC000007DC000007BC0000008
:1001000079C0000077C0000075C0000073C0000017
:1001100071C000006FC000006DC000006BC0000027
:1001200069C0000067C0000065C0000063C0000037
:1001300061C000005FC000005DC000005BC0000047
:1001400059C0000057C0000055C0000053C0000057
:1001500051C000004FC000004DC000004BC0000067
:1001600049C0000047C0000045C0000043C0000077
:1001700041C000003FC000003DC000003BC0000087
:1001800039C0000037C0000035C0000033C0000097
:1001900031C000002FC000002DC000002BC00000A7
:1001A00029C0000027C0000025C0000023C00000B7
:1001B00021C000001FC000001DC000001BC00000C7
:1001C00019C0000017C0000043757272656E746C30
:1001D000793A202564006261676E617261000000F7
:1001E00011241FBECFEFDFE5DEBFCDBF00E00CBFA7
:1001F000DCD0E2C305CF81E0E0E0F6E086838FE863
:1002000091E00197F1F700C00000089581E0E0E07F
:10021000F6E085838FE891E00197F1F700C00000D8
:100220000895E0E2F6E0848382E0E0E0F6E0858392
:100230002AE02A95F1F700C0E0E0F6E086838FEF30
:1002400099EF20E0815090402040E1F700C000008D
:100250000895D1DF81E0E5DF2FEF81EE94E02150BA
:1002600080409040E1F700C0000082E0DADF2FEF2D
:1002700081EE94E0215080409040E1F700C0000002
:100280000895B9DF82E0CDDF2FEF81EE94E02150B9
:1002900080409040E1F700C000000895A2E0B0E087
:1002A000E3E5F1E0B2C06A838983A5DF89816A81D1
:1002B000813011F080E001C080E4860F8068B1DFFA
:1002C0002296E2E0BBC060E080E0E8CF60E081E041
:1002D000E5CFA1E0B0E0EEE6F1E097C0898396DFDC
:1002E00089819FDF2196E2E0A9C0A1E0B0E0EAE7C2
:1002F000F1E089C08C01615039F0F80181918F01E2
:100300006983E7DF6981F7CF2196E4E095C0CF9359
:10031000DF93EC018991882311F0DBDFFBCFDF91C4
:10032000CF910895CF93DF93EC01FE018491882350
:1003300019F0CFDF2196F9CFDF91CF910895E0E258
:10034000F6E014828FEF8183E0E0F6E087E08683B9
:1003500081832FEF83ED90E3215080409040E1F7BF
:1003600000C0000088E35DDF8FE891E00197F1F7BE
:1003700000C000008CE055DF8FE891E00197F1F7B5
:1003800000C0000081E04DDF8FE39CE90197F1F7A9
:1003900000C0000086E045DF8FE39CE90197F1F79C
:1003A00000C0000084E13DDF54CFA9E1B0E0EAEDF8
:1003B000F1E029C0C4DF4DDF86DF86ED91E0B2DFDA
:1003C00085DF1F921F921F928EE08F9388EC91E041
:1003D0009F938F938E010F5F1F4F1F930F9336D004
:1003E000C80195DFCDBFDEBFFFCF2F923F924F9266
:1003F0005F926F927F928F929F92AF92BF92CF92B5
:10040000DF92EF92FF920F931F93CF93DF93CDB7BD
:10041000DEB7CA1BDB0BCDBFDEBF19942A88398833
:1004200048885F846E847D848C849B84AA84B9848C
:10043000C884DF80EE80FD800C811B81AA81B98198
:10044000CE0FD11DCDBFDEBFED0108950F931F93D9
:10045000CF93DF93CDB7DEB72E97CDBFDEBF0E892A
:100460001F898EE08C8309831A838FEF9FE78D832A
:100470009E83AE01465E5F4F688D798DCE010196F9
:100480000DD0EF81F885E00FF11F10822E96CDBFC1
:10049000DEBFDF91CF911F910F9108952F923F9270
:1004A0004F925F926F927F928F929F92AF92BF9284
:1004B000CF92DF92EF92FF920F931F93CF93DF9330
:1004C000CDB7DEB72C97CDBFDEBF7C016B018A01B3
:1004D000FC0116821782838181FFB0C1CE01019693
:1004E0004C01F7019381F60193FD859193FF819172
:1004F0006F01882309F49EC1853239F493FD8591FB
:1005000093FF81916F01853221F4B70190E0C4D14E
:10051000E8CF512C312C20E02032A0F48B3269F04E
:1005200030F4803259F0833269F420612CC08D326E
:1005300039F0803339F4216026C02260246023C062
:10054000286021C027FD27C030ED380F3A3078F4FD
:1005500026FF06C0FAE05F9E300D1124532E13C013
:100560008AE0389E300D1124332E20620CC08E326A
:1005700021F426FD5FC1206406C08C3611F420688A
:1005800002C0883641F4F60193FD859193FF819175
:100590006F018111C1CF982F9F7D9554933028F41E
:1005A0000C5F1F4FFFE3F9830DC0833631F08337B3
:1005B00071F0833509F057C021C0F801808189832B
:1005C0000E5F1F4F44244394512C540114C0380132
:1005D000F2E06F0E711CF801A080B18026FF03C00D
:1005E000652D70E002C06FEF7FEFC5012C8749D108
:1005F0002C0183012C852F77222E16C03801F2E0C2
:100600006F0E711CF801A080B18026FF03C0652D1C
:1006100070E002C06FEF7FEFC5012C8727D12C015E
:100620002C852068222E830123FC19C0832D90E0A5
:1006300048165906A0F4B70180E290E02DD13A9413
:10064000F5CFF50127FC859127FE81915F01B70168
:1006500090E022D131103A94F1E04F1A5108411440
:10066000510479F7DEC0843611F0893631F5F8018E
:1006700027FF07C060817181828193810C5F1F4FCA
:1006800008C060817181882777FD8095982F0E5F63
:100690001F4F2F76B22E97FF09C0909580957095C9
:1006A00061957F4F8F4F9F4F2068B22E2AE030E038
:1006B000A40124D1A82EA81843C0853729F42F7E81
:1006C000B22E2AE030E025C0F22FF97FBF2E8F3600
:1006D000C1F018F4883579F0ADC0803719F088374B
:1006E00021F0A8C02F2F2061B22EB4FE0DC08B2D9B
:1006F0008460B82E09C024FF0AC09F2F9660B92ECF
:1007000006C028E030E005C020E130E002C020E172
:1007100032E0F801B7FE07C0608171818281938168
:100720000C5F1F4F06C06081718180E090E00E5F1A
:100730001F4FA401E3D0A82EA818FB2DFF77BF2ED2
:10074000B6FE0BC02B2D2E7FA51450F4B4FE0AC0AC
:10075000B2FC08C02B2D2E7E05C07A2C2B2D03C099
:100760007A2C01C0752C24FF0DC0FE01EA0DF11D8D
:100770008081803311F4297E09C022FF06C0739462
:10078000739404C0822F867809F0739423FD12C0FD
:1007900020FF06C05A2C731418F4530C5718732CEE
:1007A000731460F4B70180E290E02C8775D07394E5
:1007B0002C85F6CF731410F4371801C0312C24FFA8
:1007C00011C0B70180E390E02C8766D02C8522FF12
:1007D00016C021FF03C088E590E002C088E790E0E2
:1007E000B7010CC0822F867851F021FD02C080E253
:1007F00001C08BE227FD8DE2B70190E04DD0A5143A
:1008000030F4B70180E390E047D05A94F8CFAA942F
:10081000F401EA0DF11D8081B70190E03DD0A110F7
:10082000F6CF332009F45DCEB70180E290E034D0FA
:100830003A94F7CFF7018681978102C08FEF9FEF3F
:100840002C96CDBFDEBFDF91CF911F910F91FF900E
:10085000EF90DF90CF90BF90AF909F908F907F9060
:100860006F905F904F903F902F900895FC010590FE
:10087000615070400110D8F7809590958E0F9F1FA2
:100880000895FC016150704001900110D8F78095E7
:1008900090958E0F9F1F08950F931F93CF93DF9313
:1008A000182F092FEB018B8181FD03C08FEF9FEF84
:1008B00020C082FF10C04E815F812C813D81421794
:1008C00053077CF4E881F9819F012F5F3F4F288314
:1008D0003983108306C0E885F985812F1995892B06
:1008E00029F72E813F812F5F3F4F2E833F83812F3A
:1008F000902FDF91CF911F910F910895FA01AA27B0
:10090000283051F1203181F1E8946F936E7F6E5F52
:100910007F4F8F4F9F4FAF4FB1E03ED0B4E03CD000
:10092000670F781F891F9A1FA11D680F791F8A1FE3
:10093000911DA11D6A0F711D811D911DA11D20D04A
:1009400009F468943F912AE0269F11243019305D04
:100950003193DEF6CF010895462F4770405D4193F5
:10096000B3E00FD0C9F7F6CF462F4F70405D4A3342
:1009700018F0495D31FD4052419302D0A9F7EACF0A
:10098000B4E0A6959795879577956795BA95C9F739
:1009900000976105710508959B01AC010A2E06942C
:1009A0005795479537952795BA95C9F7620F731FE5
:0C09B000841F951FA01D0895F894FFCF30
:00000001FF
