:10000000A3C10000C2C10000C0C10000BEC1000009
:10001000BCC10000BAC10000B8C10000B6C10000F8
:10002000B4C10000B2C10000B0C10000AEC1000008
:10003000ACC10000AAC10000A8C10000A6C1000018
:100040000C94BE1A0C940B1B0C94581B9EC1000000
:100050009CC100009AC1000098C1000096C1000038
:1000600094C1000092C1000090C100008EC1000048
:100070008CC100008AC1000088C1000086C1000058
:1000800084C1000082C1000080C100007EC1000068
:100090007CC100007AC1000078C1000076C1000078
:1000A00074C1000072C1000070C100006EC1000088
:1000B0006CC100006AC1000068C1000066C1000098
:1000C00064C1000062C1000060C100005EC10000A8
:1000D0005CC100005AC1000058C1000056C10000B8
:1000E00054C1000052C1000050C100004EC10000C8
:1000F0004CC100004AC1000048C1000046C10000D8
:1001000044C1000042C1000040C100003EC10000E7
:100110003CC100003AC1000038C1000036C10000F7
:1001200034C1000032C1000030C100002EC1000007
:100130002CC100002AC1000028C1000026C1000017
:1001400024C1000022C1000020C100001EC1000027
:100150001CC100001AC1000018C1000016C1000037
:1001600014C1000012C1000010C100000EC1000047
:100170000CC100000AC1000008C1000006C1000057
:1001800004C1000002C1000000C10000FEC0000068
:10019000FCC00000FAC00000F8C00000F6C000007B
:1001A000F4C000000C940B1AF0C00000EEC0000078
:1001B000ECC00000EAC00000E8C00000E6C000009B
:1001C000E4C00000E2C000003F3F3F3F3F3F3F3FF1
:1001D0003F3F3F3F3F3F3F3F3F3F3F3F3F71313F0B
:1001E0003F3F7A736177323F3F6378646534333FD2
:1001F0003F2076667472353F3F6E62686779363F9E
:100200003F3F6D6A7537383F3F3F6B696F30393F0D
:100210003F3F3F6C3F703F3F3F3F3F3F3F3F3F3F90
:100220003F3F3F3F3F3F3F3F3F3F3F3F3F3F3F3FDE
:100230003F3F3F3F3F3F3F3F3F3F3F3F3F3F3F3FCE
:100240003F3F3F3F3F3F3F3F808386898C8F929562
:10025000989C9FA2A5A8ABAEB0B3B6B9BCBFC1C4B1
:10026000C7C9CCCED1D3D5D8DADCDEE0E2E4E6E80B
:10027000EAECEDEFF0F2F3F5F6F7F8F9FAFBFCFC37
:10028000FDFEFEFFFFFFFFFFFFFFFFFFFFFFFEFE84
:10029000FDFCFCFBFAF9F8F7F6F5F3F2F0EFEDEC04
:1002A000EAE8E6E4E2E0DEDCDAD8D5D3D1CECCC9A8
:1002B000C7C4C1BFBCB9B6B3B0AEABA8A5A29F9C22
:1002C0009895928F8C898683807C797673706D6A1D
:1002D0006763605D5A5754514F4C494643403E3B1B
:1002E000383633312E2C2A272523211F1D1B1917A1
:1002F000151312100F0D0C0A090807060504030355
:1003000002010100000000000000000000000101E7
:100310000203030405060708090A0C0D0F10121347
:100320001517191B1D1F212325272A2C2E31333683
:10033000383B3E404346494C4F5154575A5D6063E9
:10034000676A6D707376797C11241FBECFEFDFE58D
:10035000DEBFCDBF00E00CBF13E2A0E0B0E2E4E6F8
:10036000F0E500E00BBF02C007900D92AE3BB10775
:10037000D9F719E2AEEBB3E201C01D92A432B10786
:10038000E1F70E94081D0C9430283ACE81E0E0E0AD
:10039000F6E086838FE891E00197F1F700C0000056
:1003A000089581E0E0E0F6E085838FE891E0019731
:1003B000F1F700C000000895E0E2F6E0848382E0F7
:1003C000E0E0F6E085838AE08A95F1F700C082E0FC
:1003D000E0E0F6E086838AE08A95F1F700C00895B0
:1003E000D5DF81E0E9DF8FE39CE90197F1F700C0F9
:1003F000000082E0E1DF8FE39CE90197F1F700C0A4
:1004000000000895C3DF82E0D7DF8FE39CE9019706
:10041000F1F700C000000895A2E0B0E0E2E1F2E0F0
:100420000C9476216A838983B1DF89816A81813066
:1004300011F080E001C080E4860F8068BDDF229665
:10044000E2E00C948F2160E080E0E6CF60E081E0A4
:10045000E3CFA1E0B0E0EFE2F2E00C9476218983F3
:10046000A0DF8981A9DF2196E2E00C948F21A1E031
:10047000B0E0EDE3F2E00C9474218C01615039F0AE
:10048000F80181918F016983E4DF6981F7CF2196BB
:10049000E4E00C948D21CF93DF93EC0189918823C4
:1004A00011F0D7DFFBCFDF91CF910895CF93DF938A
:1004B000EC01FE018491882319F0CBDF2196F9CF5E
:1004C000DF91CF910895E0E2F6E014828FEF81830F
:1004D000E0E0F6E087E0868381832FEF81EE94E011
:1004E000215080409040E1F700C0000088E364DFC5
:1004F0008FE891E00197F1F700C000008CE05CDF2D
:100500008FE891E00197F1F700C0000081E054DF2F
:100510008FE39FE10197F1F700C0000086E04CDF18
:100520008FE39FE10197F1F700C0000084E144DF11
:1005300057CF60EC73EA82E095E40895EC0150DF58
:1005400082DF8DEE90E2A7DF81DFCE01A4DF81E0C4
:1005500090E00E943028AAE0B0E0E1EBF2E00C94D9
:100560006A21782E70DF8AE0E7E2F0E2DE01119680
:1005700001900D928A95E1F7612CC62CC594CC0CA4
:10058000DD0846018FEF881A980AFE0131967F0137
:1005900000E010E0A62CBB24A7FCB09405301105A8
:1005A00071F100FD02C04FDF01C050DF80169106DF
:1005B000BCF00C151D05A4F0A016B10661F4F50100
:1005C000EE0FFF1F81E090E08C0F9D1FE80FF91FD9
:1005D0008081918104C0F7018081918102965BDF67
:1005E0000F5F1F4FF4E06F1206C000FF04C02EDF44
:1005F00082EF90E250DF82E0E80EF11CCFCF0E9444
:10060000961A90911426911127C08A35F1F466202C
:1006100051F191E0691204C0872D0E94C31B23C0D1
:10062000E2E06E1205C080E090E00E94151C1BC045
:10063000F3E06F16C1F084E0681619F094E0692EBB
:100640009CCF872D0E94ED1B0EC0823711F463945E
:1006500003C0853709F46A9416140CF08DCF94E02A
:10066000961564F38ACF2A96EEE00C948321CF93FB
:10067000DF93DB01FC019A012230310538F0CD9186
:10068000DD91C193D19322503109F6CFDA01AE7FCB
:10069000FB01EA0FFB1FA80FB91F417055274E0F32
:1006A0005F1FE417F50719F081918D93FACFDF9161
:1006B000CF9108950097D1F0DC01ED91FC91119755
:1006C0003097A1F02081222389F02681378112966C
:1006D0008D919C9113972817390741F481810E94CD
:1006E0000C1680FF06C083E090E0089589E090E05A
:1006F000089580E090E008950F93CF93DF93EC018D
:10070000C29601E09A01AB01BC0189810E94C0162A
:10071000892B19F5FE01E05DFD4F808191818535C2
:100720009A4AE9F4FE01E859FF4F40815181628104
:1007300073817727463451446445710591F0CC5755
:10074000DF4F488159816A817B81772781E0463478
:1007500051446445710531F404C083E003C082E074
:1007600001C080E0DF91CF910F910895AEE0B0E03D
:10077000ECEBF3E00C946621142FDC01ED91FC917D
:1007800011972081332727FD3095205331092A30D6
:10079000310538F441814A3321F43296ED93FC93CC
:1007A00002C020E030E0FB0110821182232B09F00F
:1007B00011C22091C0233091C1232D873E8721157E
:1007C000310509F40AC220833183D9018C91882331
:1007D00061F011968C910E940C1680FD06C01123C9
:1007E00009F4FEC182FD02C2FBC1ED85FE851082C7
:1007F000118280E00E94131680FDF5C1112311F0D3
:1008000082FDF4C140E050E0BA018D859E8574DF21
:100810008130C1F4ED85FE85EC50FE4F8081811161
:1008200003C08DE090E0E7C1ED85FE85E850FE4F06
:100830004080518062807380B301A2018D859E85C6
:100840005BDF03C0412C512C3201833009F4D1C14C
:100850008111E7CFAD85BE85DD968D919C91DE97A8
:1008600081159240F1F6ED85FE85E85BFF4FC08073
:10087000D180E12CF12CC114D104E104F10441F444
:10088000ED85FE85EA5AFF4FC080D180E280F3807B
:10089000ED85FE85C28ED38EE48EF58EEE5BFF4F26
:1008A000A081ED85FE85A3838FEF8A0F823008F04B
:1008B000B8CF17AD1283112309F4B3CF212F30E045
:1008C000C901019782239323892B09F0AACFED5BFD
:1008D000FF4F20803180ED85FE8520863186C10165
:1008E0008F709927892B09F09CCFEB5BFF4F80809D
:1008F0009180A12CB12C81149104A104B10441F484
:10090000ED85FE85EE5AFF4F80809180A280B380F6
:10091000ED85FE85E05CFF4F2081318129833A839C
:10092000232B09F47ECFB0E0A70196010E943A2163
:100930006D837E838F839887A981BA81CD01A0E0E2
:10094000B0E089879A87AB87BC87C10164E0969540
:1009500087956A95E1F729853A854B855C85280F4F
:10096000391F411D511D8D819E81AF81B885280F92
:10097000391F4A1F5B1F29833A834B835C8382168E
:100980009306A406B50608F44CCFC501B401621B5A
:10099000730B840B950B212F30E040E050E00E9458
:1009A0004421211531054105510509F43ACF263F6F
:1009B0009FE039074105510540F0263FAFEF3A0768
:1009C0004105510520F412E003C011E001C013E01D
:1009D00049015A01B2E08B0E911CA11CB11CED859E
:1009E000FE85868A978AA08EB18E468E578E60A22B
:1009F00071A289859A85AB85BC85840D951DA61D40
:100A0000B71D82A393A3A4A3B5A349815A816B8187
:100A10007C81440D551D661D771D42A753A764A711
:100A200075A71330D1F42114310409F0FACEE25A3B
:100A3000FF4F80819181A281B381ED85FE8586A3E0
:100A400097A3A0A7B1A7C501B40152E0660F771F15
:100A5000881F991F5A95D1F72EC02114310409F42B
:100A6000E0CE2D813E814F815885820F931FA41FB8
:100A7000B51FED85FE8586A397A3A0A7B1A7123069
:100A800039F4C501B401660F771F881F991F13C081
:100A9000A3E0B0E0A50194010E943A2196958795C4
:100AA00077956795F1E08F229924AA24BB24680DDD
:100AB000791D8A1D9B1DDC01CB0181509E4FAF4FDC
:100AC000BF4F29E0B695A795979587952A95D1F7B9
:100AD000C816D906EA06FB0608F4A3CE8FEF9FEFEF
:100AE000DC01ED85FE8586879787A08BB18BDF01C2
:100AF0001286138614861586133009F054C01582A9
:100B0000EE59FF4F80819181A3019201280F391F77
:100B1000411D511DFD01228B338B448B558B01E010
:100B2000BD016E5C7F4F81810E94C016892BD9F573
:100B3000ED85FE85E05DFD4F8081918185359A4A86
:100B400091F5ED85FE8582A993A9A4A9B5A9823561
:100B50009245A146B14439F5ED85FE85EA5EFD4F2B
:100B600080819181A281B38182379247A144B146AD
:100B7000D1F4ED85FE85E25EFD4F80819181A281F9
:100B8000B381ED85FE8582879387A487B587E65E6E
:100B9000FD4F80819181A281B381ED85FE8586879D
:100BA0009787A08BB18BAD85BE851C938091BE23AA
:100BB0009091BF2301968093BE239093BF231696F6
:100BC0008D939C931797FD0116A617A610AA11AA3C
:100BD000148206C08BE090E00EC08CE090E00BC069
:100BE00080E090E008C083E090E005C08AE090E0FB
:100BF00002C081E090E02E96E2E10C947F214F92BA
:100C00005F926F927F92AF92BF92CF92DF92EF92FC
:100C1000FF920F93CF93DF93EC018C81882309F42B
:100C200047C04EA45FA468A879A86E0182E3C80EED
:100C3000D11C01E0A3019201B60189810E9406172F
:100C4000892B99F51C824AA15BA16CA17DA1441658
:100C500055066606770660F18A8D9B8DAC8DBD8D3D
:100C6000840F951FA61FB71F481659066A067B06F4
:100C7000F8F4AB80B12CE12CF12CC5018E199F0941
:100C80000297B0F08A8D9B8DAC8DBD8D480E591E9C
:100C90006A1E7B1E01E0A3019201B60189810E94B8
:100CA00006178FEFE81AF80AE8CF81E090E002C05B
:100CB00080E090E0DF91CF910F91FF90EF90DF9077
:100CC000CF90BF90AF907F906F905F904F900895BE
:100CD000CF92DF92EF92FF920F93CF93DF93EC01CD
:100CE0006A017B018EA59FA5A8A9B9A94817590734
:100CF0006A077B0799F0CE0182DF892B91F401E02E
:100D0000A7019601BE016E5C7F4F89810E94C016CB
:100D1000892B39F4CEA6DFA6E8AAF9AA80E090E0F4
:100D200002C081E090E0DF91CF910F91FF90EF90B2
:100D3000DF90CF9008950F93CF93DF93EC015FDFA7
:100D4000009709F05EC08881833009F04DC08D8125
:100D5000882309F449C01EA61FA618AA19AACE0105
:100D6000C296FC019E012E5C3D4FE217F30711F085
:100D70001192FBCF25E53AEAFE01E05DFD4F2083AD
:100D8000318342E552E561E671E44AAB5BAB6CABA3
:100D90007DAB42E752E761E471E6FE01EA5EFD4F9A
:100DA00040835183628373834E855F856889798927
:100DB000FE01E65EFD4F40835183628373834A8563
:100DC0005B856C857D85FE01E25EFD4F408351832E
:100DD000628373832A893B894C895D8901E0BC0168
:100DE00089810E9406171D8240E050E060E0898101
:100DF0000E94601731E020E0892B09F430E0832F56
:100E0000922FDF91CF910F9108950F931F93FC01C3
:100E1000425051096109710906891789208D318D68
:100E20000250110921093109401751076207730760
:100E300078F4A281B0E09A01AB010E943A2102A5A8
:100E400013A524A535A5600F711F821F931F03C032
:100E500060E070E0CB011F910F910895A0E0B0E039
:100E6000E4E3F7E00C946F21EC016A017B0142306E
:100E700051056105710508F4A3C08E899F89A88D6D
:100E8000B98D481759076A077B0708F099C0888110
:100E9000823009F446C0833009F465C0813009F01E
:100EA0008BC08A0116950795040F151FC801892F5D
:100EB000992786954AA15BA16CA17DA1480F591F76
:100EC000611D711DCE0104DF892B09F075C0F80189
:100ED000F170EC0FFD1FB2A80F5F1F4FC801892FE3
:100EE000992786954AA15BA16CA17DA1480F591F46
:100EF000611D711DCE01ECDE892B09F05DC0F8018A
:100F0000F170EC0FFD1F82A96B2D70E0782BC0FEF5
:100F100006C0B4E076956795BA95E1F721C07F7079
:100F20001FC0452F562F672F77278AA19BA1ACA101
:100F3000BDA1480F591F6A1F7B1FCE01C9DE892B37
:100F4000D9F5CC0CDD1CEE1CFF1CE894C0F881E048
:100F5000D822EE24FF24FE01EC0DFD1D62A973A929
:100F600080E090E031C0E7E076956795579547952A
:100F7000EA95D1F78AA19BA1ACA1BDA1480F591F49
:100F80006A1F7B1FCE01A4DE892BB1F472E0CC0C6A
:100F9000DD1CEE1CFF1C7A95D1F78CEFC82281E096
:100FA000D822EE24FF24FE01EC0DFD1D62A973A9D9
:100FB00084A995A99F7008C06FEF7FEFCB0104C093
:100FC00061E070E080E090E0CDB7DEB7E9E00C943E
:100FD00088210F931F93CF93DF93EC011C821D8216
:100FE0004E815F81688579854130510561057105C4
:100FF00019F482E090E063C008811981F8018689C4
:101000009789A08DB18D481759076A077B0788F724
:101010004115510561057105F1F48081833049F472
:1010200046A157A160A571A541155105610571053E
:1010300091F41A861B861C861D86F8018085918591
:10104000892BB9F286A197A1A0A5B1A58E879F870C
:10105000A88BB98B2BC0F801828181111DC08881BA
:101060009981FCDEAB01BC014F3FFFEF5F076F07CB
:101070007F0719F1423051056105710508F4B9CFB8
:10108000E881F98186899789A08DB18D4817590724
:101090006A077B0720F3ADCF4A875B876C877D8724
:1010A000C801B3DE6E877F87888B998B0E5C1F4FDC
:1010B0000A8B1B8B80E090E002C081E090E0DF9122
:1010C000CF911F910F910895A4E0B0E0EAE6F8E017
:1010D0000C9468214C016A017B01280139014230DE
:1010E00051056105710508F4DFC0FC018689978907
:1010F000A08DB18D481759076A077B0708F0D4C047
:101100008081823009F470C0833009F490C081304E
:1011100009F0C3C05A01B694A794A40EB51EC50128
:10112000892F9927869542A153A164A175A1480FE3
:10113000591F611D711DC401CBDD009709F0AFC0BF
:10114000A5015170480D591DD701C601817099271D
:10115000AA27BB2789839A83AB83BC83C0FE0AC0BE
:10116000DA01D2962C912F70B0E14B9EC001112470
:10117000282B01C0242DFA0122ABFFEFAF1ABF0AC2
:1011800081E0D40114968C931497C501892F992777
:10119000869592964D915D916D917C919597480FB2
:1011A000591F611D711DC40193DD009709F077C0BF
:1011B000F501F170E80DF91D29813A814B815C81BF
:1011C000232B242B252B49F0B4E076946794579475
:1011D0004794BA95D1F7242D05C022A9207F352D3B
:1011E0003F70232B22AB5BC0452F562F672F7727ED
:1011F000F40182A193A1A4A1B5A1480F591F6A1FB0
:101200007B1FC40165DD009709F049C0CC0CDD1CD3
:10121000EE1CFF1CE894C0F8F1E0DF22EE24FF246E
:10122000F601F296E80DF91D4082518238C0E7E0E0
:101230007695679557954795EA95D1F7F40182A180
:1012400093A1A4A1B5A1480F591F6A1F7B1FC40118
:101250003FDD009721F552E0CC0CDD1CEE1CFF1C9D
:101260005A95D1F7FCEFCF22F1E0DF22EE24FF24E4
:10127000F601F296E80DF91D40815181628173817A
:10128000442755276627707F4429552966297729E1
:10129000408351836283738302C082E090E021E047
:1012A000D40114962C9302C082E090E02496E0E1F1
:1012B0000C948121A0E0B0E0E0E6F9E00C94682114
:1012C000EC012A013B01411551056105710599F4B5
:1012D0008A849B84AC84BD8481149104A104B104EC
:1012E000F1F04E895F89688D798D84169506A60682
:1012F000B706A8F418C0B2DD62307105810591050A
:1013000008F48AC0CE88DF88E88CF98C6C157D05DE
:101310008E059F0508F482C05301420104C0812C50
:10132000912C54018394750164012FEFC21AD20AE3
:10133000E20AF20A4E895F89688D798DC416D50656
:10134000E606F70680F082E088169104A104B10455
:1013500028F440E030E020E090E063C052E0C52E89
:10136000D12CE12CF12CB701A601CE0177DD61155E
:10137000710581059105B9F06F3F2FEF7207820764
:10138000920729F44FEF3FEF2FEF9FEF4AC06130F4
:1013900071058105910509F43FC0C814D904EA0418
:1013A000FB0419F6D6CF0FEF1FEF2FEF3FE0B70189
:1013B000A601CE0189DE009761F541145104610454
:1013C0007104C9F4CA86DB86EC86FD864E855F858E
:1013D000688979894F3F8FEF580768077807A1F030
:1013E00041505109610971094E875F87688B798B7C
:1013F00081E08D8309C097018601B301A201CE016E
:1014000063DE0097F9F205C04C2D3D2D2E2D9F2D4A
:1014100008C0019709F4B6CF41E09CCF462F372F83
:10142000282F642F732F822FCDB7DEB7E0E10C9405
:101430008121A0E0B0E0EFE1FAE00C946C21EC0136
:101440006B010C811D810F5F1F4F0115110519F4F0
:1014500084E090E0DCC08E859F85A889B9890097DB
:10146000A105B105A9F378012FE0E222FF24E114E0
:10147000F10409F0B7C00196A11DB11D8E879F87A9
:10148000A88BB98B4A855B856C857D858881998120
:10149000FC01411551056105710531F48085918587
:1014A00008171907A8F69EC0228130E021503109A3
:1014B000F801A4E0F695E795AA95E1F72E233F23DE
:1014C000232B09F08FC0CADC4B015C01623071052F
:1014D0008105910518F482E090E099C06F3F2FEFED
:1014E00072078207920719F481E090E090C088812A
:1014F0009981FC0146895789608D718D8416950606
:10150000A606B70608F461C0C114D10409F4A0CF3F
:101510004A855B856C857D85CDDE4B015C0161155F
:1015200071058105910509F470C06130710581056F
:10153000910589F26F3F2FEF720782079207A1F2A0
:10154000888199815CDB892B79F688819981FC01FE
:10155000F2968E5C9D4FE817F90711F01192FBCFC0
:10156000C880D980B501A401C6014FDCF60166A789
:1015700077A780AB91ABD12CCC24C394E881F981BF
:101580008281D816B0F4C4828881998138DB892B96
:1015900009F0AACFE881F98186A597A5A0A9B1A9EC
:1015A0000196A11DB11D86A797A7A0ABB1ABD3949F
:1015B000E5CF86A597A5A0A9B1A98D199109A10983
:1015C000B10986A797A7A0ABB1AB8A869B86AC86EC
:1015D000BD86B501A4018881998117DC6E877F875C
:1015E000888B998B0C831D8375E0EE0CFF1C7A951C
:1015F000E1F7F2E3EF0EF11C888199818E0D9F1DBA
:101600008A8B9B8B80E090E002C087E090E0CDB7B2
:10161000DEB7ECE00C948521CF93DF93EC0124E05E
:1016200030E04E855F8568897989411551056105EE
:101630007105E1F0888199814BDB009719F5EA8902
:10164000FB8920812223E1F03385253E31F02E32C3
:1016500021F0232F2F732830B9F060E070E0CE0125
:10166000E8DE009779F420E030E0DBCFC9012115F6
:10167000310551F01E861F86188A198AC90104C0D7
:1016800084E090E09C01F6CFDF91CF910895CF9355
:10169000DF93EC014E855F8568897989888199811E
:1016A00017DB009769F4EA89FB892081253E41F028
:1016B000222331F061E070E0CE01BBDE009751F3F0
:1016C000DF91CF910895811113C0E091C023F09173
:1016D000C123309709F010826115710511F0FB01EB
:1016E00010826093C0237093C12380E090E008953E
:1016F0008BE090E00895ADE2B0E0E1E8FBE00C940F
:1017000066218DA39EA36BA37CA3D42E009709F41E
:1017100056C2DC011D921C924E71BE016F5F7F4F5D
:10172000CE01839623D8009709F091C2CE01479647
:101730008D8B9E8BEBA0FCA0F70180818F3211F086
:101740008C3519F4FFEFEF1AFF0A1F8218861986ED
:101750001A86D7018C91803238F4CE01019639DC9B
:101760008C011B8A1C8AD0C0F0E28F2EA5E09A2E35
:101770002701F7018081FFEFEF1AFF0A8F32C1F3D3
:101780008C35B1F3ED89FE89CF019F01255F3F4F75
:101790008217930721F0DC018D92CD01F9CF320140
:1017A00080E090E0E12CF12C28E030E050E0BFEF49
:1017B000EB1AFB0AD3016D913D01462F613220F1F6
:1017C0006F3211F16C3501F16E3209F418C28217D3
:1017D000930708F097C067FF06C0536070E063523C
:1017E000704EDB014C91A42EB12C69E373E2DB0156
:1017F0000D91BD01002309F4E5C1112707FD1095E6
:101800000A151B05A1F77EC0E40CF51C613210F42B
:1018100044E001C040E0892B09F474C08081853E1A
:1018200009F490822830310511F4550F550F852F9A
:101830008370813009F44061852F8C70843009F405
:1018400048604387CE010196C4DB009741F54F8580
:10185000588969897A8989819A813ADA0097F9F4F5
:10186000EB89FC8980818823A1F0838583FD0BC0EF
:10187000AD89BE89CF010B96E817F90769F0319160
:101880002D913217C9F360E070E0CE010196D1DDF1
:10189000DCCF04E010E004C000E010E001C08C01E7
:1018A000ED89FE8983850115110531F0043011059C
:1018B00059F582FF24C028C082FD26C04B895C896F
:1018C000FA01838584FF1BC0828D938DA0E0B0E078
:1018D00029813A81F9012081233061F4FA01448998
:1018E000558960E070E0BA0155274427842B952B79
:1018F000A62BB72B8F839887A987BA8739CF05E0A6
:1019000010E002C006E010E02B883C8801151105AC
:1019100029F42114310411F406E010E0FD2DFF71CB
:10192000F9A78D2D8C7109F4E7C001151105B9F1E6
:101930000430110559F5CE0101964BDB8C0100975F
:1019400029F5CE010196A3DE8C010097F9F44F85AD
:10195000588969897A8989819A81BAD98C010097D5
:10196000A9F4EB89FC89CF018096E817F90711F0FB
:101970001192FBCF6D897E894BE050E08B899C8969
:101980000E943703E981FA8181E0848329A52860D8
:1019900029A72B883C880115110549F02EC1D101DA
:1019A0001B968C91817109F026C1D2FC1EC1B9A58C
:1019B000B3FFAFC00E949902F10166877787808BE1
:1019C000918B1386D101148E158E168E178EE98198
:1019D000FA81EFA3F8A75A968D919C915B972C0101
:1019E000612C712C8081833069F454968D919C9187
:1019F0005597A0E0B0E0DC0199278827482A592AAA
:101A00006A2A7B2AD1015A961D921C925B975496A2
:101A10001D921C92559781E0EFA1F8A58483411493
:101A200051046104710409F474C086A597A5A0A9A6
:101A3000B1A98AA79BA7ACA7BDA7B2E04B165104DA
:101A40006104710408F4FDC086899789A08DB18D69
:101A5000481659066A067B0608F0F3C07301620156
:101A6000EFA1F8A586899789A08DB18DC816D906F2
:101A7000EA06FB0608F0CEC0B701A6018FA198A523
:101A8000EDD94B015C01611571058105910509F4E2
:101A9000C1C0613071058105910509F4D2C06F3F65
:101AA000FFEF7F078F079F0709F4CEC000E010E02B
:101AB0009801B701A6018FA198A506DB8C010097BC
:101AC00009F09BC0EFA1F8A586859785A089B1890B
:101AD0008F3FFFEF9F07AF07BF0759F00196A11D8A
:101AE000B11DEFA1F8A586879787A08BB18B21E068
:101AF000258375016401B4CF0115110509F07DC07E
:101B0000D1011B968C9184FD73C0D1FE02C080FD73
:101B100072C0B9A5B3FF02C0B062B9A709811A812A
:101B2000F80146A557A560A971A9ADA1BEA15A9615
:101B30004D935D936D937C935D975E962D923C9251
:101B40005F97E9A51496EC93D1015A968D919C91DB
:101B50005B97A0E0B0E0F8012081233061F4F1014F
:101B60004489558960E070E0BA0155274427842BE9
:101B7000952BA62BB72BEDA1FEA186879787A08B6F
:101B8000B18BF101848D958DA68DB78DEDA1FEA150
:101B900082879387A487B58716821782108611865D
:101BA000168A178A108E118E00831183D80116961B
:101BB0008D919C9117978283938380E001C089E087
:101BC00090E045C06FEB640F6A3110F4526006C0BC
:101BD0006FE9640F6A3110F4516040528F01080FB1
:101BE000191FD8014C930196E2CD08E010E005C022
:101BF00004E010E002C007E010E0C80128C028306F
:101C0000310509F07FCE550F550F88E090E02BE0AD
:101C100030E0CDCD89819A81B301A20141505109B3
:101C200061097109FC0142875387648775874AA55A
:101C30005BA56CA57DA54CD88C01009709F469CFF4
:101C4000DCCF02E010E0D9CF01E010E0D6CFAD96B6
:101C5000E2E10C947F21A0E0B0E0E1E3FEE00C942F
:101C60006621EC015B017A011901F90110821182F0
:101C70000E945A03009709F00BC18C8187FD04C1B3
:101C800080FF04C18A859B85AC85BD854E815F81BF
:101C900068857985841B950BA60BB70BA70160E0BF
:101CA00070E084179507A607B70708F075C07C0198
:101CB00073C04E815F8168857985DB01CA019170AF
:101CC000AA27BB27892B8A2B8B2B09F0AFC08881D1
:101CD0009981FC01128111502A013B01E9E07694BF
:101CE000679457944794EA95D1F7142109F459C0A1
:101CF000888099804A895B896C897D89C40185D8EF
:101D0000611571058105910509F46AC02B013C013B
:101D1000410E511C611C711C6701CD2CDD24C69441
:101D2000C114D10409F47EC0F4018281212F30E076
:101D3000A601420F531F90E08417950718F46C0119
:101D4000C21AD30A0C2DA3019201B501F4018181BD
:101D50000E94C016892B09F07FC0E881F981848137
:101D6000811142C0DC2CCC24DD0CAC0CBD1C8E815E
:101D70009F81A885B9858C0D9D1DA11DB11D8E83E8
:101D80009F83A887B987F101808191818C0D9D1D6A
:101D900080839183EC18FD08E114F10409F089CFE8
:101DA00071C0452B462B472B29F46E857F8588898A
:101DB000998905C04A895B896C897D894FD86230D1
:101DC00071058105910560F06F3FFFEF7F078F0779
:101DD0009F0709F441C06A8B7B8B8C8B9D8B88CFCE
:101DE0008C8180688C8350C086A597A5A0A9B1A9D5
:101DF00084199509A609B709A60160E070E0841767
:101E00009507A607B70708F0ADCFBF016E5C7F4FFF
:101E1000982F8827990F40E052E08A0D9B1D0E9461
:101E20003703A0CF4E8A5F8A688E798E8E819F811C
:101E3000917020E032E0281B390B67012E153F0519
:101E400008F469014E895F89688D798D888199814F
:101E50000E946806892B29F08C8180688C8381E040
:101E600016C08E819F81A885B9859170AA27BB274E
:101E7000C29668817981680F791FA601C5010E9409
:101E8000370373CF80E003C082E001C087E090E0B9
:101E9000CDB7DEB7E2E10C947F21A0E0B0E0E3E54E
:101EA000FFE00C946621EC015B017A011901F90154
:101EB000108211820E945A03009709F05AC18C8146
:101EC00087FD53C181FF53C18A859B85AC85BD8544
:101ED000AC01BD014E0D5F1D611D711D48175907F5
:101EE0006A077B0710F4E12CF12C11E0E114F104F6
:101EF00009F440C04E815F8168857985DB01CA01A4
:101F00009170AA27BB27892B8A2B8B2B09F0E2C063
:101F1000E881F981028101502A013B0189E0769430
:101F20006794579447948A95D1F7042109F045C0E6
:101F3000452B462B472B99F46E857F858889998997
:101F4000611571058105910541F540E050E0BA0148
:101F5000CF01B0D96E877F87888B998B06C04A895D
:101F60005B896C897D89CF01A5D9611571058105D2
:101F7000910599F48E819F81A885B9854A855B85F5
:101F80006C857D85481759076A077B0708F0E8C00C
:101F90008A879B87AC87BD87E3C061307105810567
:101FA000910571F16F3FFFEF7F078F079F0709F4DE
:101FB000A7C06A8B7B8B8C8B9D8B88819981FC0160
:101FC00046A457A460A871A84E895F89688D798D51
:101FD000441655066606770629F40E94FF05892BEC
:101FE00009F08EC0888099804A895B896C897D89D7
:101FF000C4010E940507611571058105910521F451
:102000008C8180688C83B1C02B013C01400E511C37
:10201000611C711C6701CD2CDD24C694C114D10450
:10202000E9F1F4018281202F30E0A601420F531F15
:1020300090E08417950718F46C01C21AD30A0C2D8E
:10204000A3019201B501F4018181E0D6892B09F049
:1020500057C088819981FC0146A557A560A971A93F
:1020600044195509660977092601612C712C44151C
:1020700055056605770570F4BA01762F6627770F48
:102080006A0D7B1D40E052E0C2960E943703E88152
:10209000F9811482DC2CCC24DD0C4AC04E815F8196
:1020A000688579858A859B85AC85BD8548175907E4
:1020B0006A077B0758F0C4010E94FF05892B01F5D0
:1020C000E881F98146A657A660AA71AA4E8A5F8A5E
:1020D000688E798E8E819F81917020E032E0281B7E
:1020E000390B67012E153F0508F469014E895F8998
:1020F000688D798D888199810E946806892B29F0E5
:102100008C8180688C8381E033C08E819F81A8851B
:10211000B9859170AA27BB27C29628813981A6016B
:10212000B501820F931F0E943703E881F981148360
:10213000AC0CBD1C8E819F81A885B9858C0D9D1D21
:10214000A11DB11D8E839F83A887B987F10180816E
:1021500091818C0D9D1D80839183EC18FD08C6CE66
:102160008C8180628C8380E003C082E001C087E0C4
:1021700090E0CDB7DEB7E2E10C947F210F931F937F
:10218000CF93DF93EC010E945A030097B9F52C819D
:1021900025FF34C04A8D5B8D6C8D7D8D8881998142
:1021A0000E946806009751F50E8D1F8DF8018385FA
:1021B000806283878A859B85AC85BD85848F958F5A
:1021C000A68FB78F4E855F8568897989428F538F37
:1021D000648B758B0E949902F801668B778B808FD8
:1021E000918F128A138A8C818F7D8C83E881F9818B
:1021F00081E08483888199810E949B06DF91CF9141
:102200001F910F910895CF93DF93EC01B7DF0097F3
:1022100011F418821982DF91CF910895A4E0B0E003
:10222000E4E1F1E10C9466211C016A017B010E944A
:102230005A03009709F06BC1D10114962C911497A1
:1022400027FD61C11A968D919D910D90BC91A02D95
:102250008C159D05AE05BF0520F421FD02C06C0163
:102260007D01F10146805780608471841682178257
:1022700010861186C114D104E104F10421F4C12CAB
:10228000D12C760113C1F10100811181D801129680
:102290008C90912CA12CB12C39E0880C991CAA1C93
:1022A000BB1C3A95D1F74114510461047104D9F172
:1022B000B1E04B1A510861087108C701B6016150BD
:1022C000710981099109A50194010E944421298382
:1022D0003A834B835C83C301B201A50194010E9440
:1022E000442189819A81AB81BC8182179307A4071D
:1022F000B507C8F088279927DC0188199909AA0928
:10230000BB0984219521A621B721F10186839783FA
:10231000A087B187C81AD90AEA0AFB0A42895389F9
:10232000648975892DC0D1011E964D915D916D9185
:102330007C9151974115510561057105D1F440E03B
:1023400050E0BA01C8010E945A09AB01BC014130FA
:1023500051056105710509F46AC04F3FFFEF5F0742
:102360006F077F0709F45AC0F10146875787608BD2
:10237000718BD10152964D935D936D937C935597DC
:10238000411551056105710509F479CF2CC0423022
:1023900051056105710508F44AC0D101ED91FC9128
:1023A00086899789A08DB18D481759076A077B07E1
:1023B000F0F5D10152964D935D936D937C935597B3
:1023C00016968D919D910D90BC91A02D880D991D13
:1023D000AA1DBB1DF10186839783A087B187C8180A
:1023E000D908EA08FB088C149D04AE04BF0458F514
:1023F000F10124818081918121FF1EC00E945A0930
:10240000AB01BC014115510561057105D1F04F3F8C
:10241000FFEF5F076F077F0709F0B9CFD10114966F
:102420008C911497806814968C9381E06FC0F101B1
:1024300084818068848367C00E942E07AB01BC0141
:10244000E6CF75016401F10186819781A085B18590
:102450008C0D9D1DAE1DBF1D86839783A087B18700
:10246000D701C6019170AA27BB27892B8A2B8B2BFA
:1024700009F405CF808191810E94050761157105DE
:102480008105910541F4D10114968C9114978068CF
:1024900014968C9338C029E0F694E794D794C794A7
:1024A0002A95D1F7C60ED71EE81EF91EF1018681C6
:1024B0009781A085B185AC01BD0151706627772752
:1024C000452B462B472B69F046895789608D718DC6
:1024D000C416D506E606F70621F0C68AD78AE08E2E
:1024E000F18EF1014285538564857585481759073A
:1024F0006A077B0750F482879387A487B587848116
:102500008062848302C082E001C080E090E0249673
:10251000E2E10C947F21A8E1B0E0E1E9F2E10C9462
:1025200070218F8B988F8B017A0140E0BE016F5F25
:102530007F4FCE0147960E94B6036C01009709F0C9
:1025400051C00115110541F11F82188619861A869E
:10255000CE0101960E94E907009709F042C0CE0122
:1025600001965AD8009799F46B897C894BE050E02A
:10257000C8010E943703F8013B968BE090E010827F
:10258000009751F0019722912032C9F305C08430A1
:10259000910539F5F8011082E114F10419F18981EE
:1025A0009A81FC01468D578D60A171A10E94680639
:1025B0006C010097B9F4E981FA818081833019F4C4
:1025C00083E490E002C087E290E0E80FF91F02A9DF
:1025D00013A924A935A9F70100831183228333832A
:1025E00001C06C01C6016896E8E00C948921A3E261
:1025F000B0E0EDEFF2E10C9470218AA39BA341E0DF
:10260000BE016F5F7F4FCE0182960E94B6039C0190
:10261000009709F0B3C01F8A8AA19BA1FC01AF01FA
:10262000481B590B21912111FACF4115510569F42D
:102630001F82188619861A86CE0101960E94E90724
:102640009C01009709F09AC037C09A0121503109C6
:10265000FC01E20FF31F6081603211F4A901E5CFA4
:10266000FE0177966C0120E030E08F01D6018D915C
:102670006D0190E0BC01615671096A31710510F479
:1026800080970BC08038910528F08352904EDC0172
:102690008C9190E0009709F476C068E473E2DB0166
:1026A000ED90BD01EE2009F46BC0FF24E7FCF0942F
:1026B000E816F906A1F767C0CE0101960E940C0B3F
:1026C0009C010097F9F42F898B899C89222381F042
:1026D0004BE050E0BE01695E7F4F0E9437030E94CD
:1026E0009902EB89FC89668B778B808F918F03C071
:1026F00025EEFC01208389819A8121E0DC0114967A
:102700002C9337C084309105C9F58F898823A1F1B6
:10271000CE0101960E94E9079C01009779F5CE0150
:1027200001960E94470B9C01009741F5EB89FC89BB
:10273000CF018096E817F90711F01192FBCF4BE01B
:1027400050E0BE01695E7F4F8B899C890E943703F0
:10275000EB89FC8988E083870E949902EB89FC89D8
:10276000668B778B808F918F89819A8121E0FC0124
:1027700024830E949B061DC080E006C0C90119C0C9
:102780002B30310519F486E090E013C02F5F3F4FE6
:1027900081932417350708F469CF80E22B30310587
:1027A00008F046CFF801E20FF31F80832F5F3F4F01
:1027B000F5CFA396E8E00C948921209108060197B3
:1027C0000097D9F70895680F791FFC012191CF0177
:1027D0003091040627FF02C0306401C03F7B309374
:1027E00004063091040630613093040630910406EB
:1027F0003F7E309304063091040626FF02C0306409
:1028000001C03F7B30930406309104063061309361
:102810000406309104063F7E30930406309104068E
:1028200025FF02C0306401C03F7B30930406309125
:102830000406306130930406309104063F7E3093E5
:1028400004063091040624FF02C0306401C03F7BBF
:1028500030930406309104063061309304063091C1
:1028600004063F7E309304063091040623FF02C025
:10287000306401C03F7B3093040630910406306120
:1028800030930406309104063F7E30930406309165
:10289000040622FF02C0306401C03F7B309304066F
:1028A00030910406306130930406309104063F7E77
:1028B000309304063091040621FF02C0306401C049
:1028C0003F7B309304063091040630613093040658
:1028D000309104063F7E3093040620FF04C020910F
:1028E0000406206403C0209104062F7B2093040675
:1028F00020910406206120930406209104062F7E77
:10290000209304068617970709F05FCF089520915A
:102910000406206420930406680F791F209108069E
:1029200030910406306130930406309104063F7EF6
:102930003093040623FB222720F9220F309108064A
:1029400033FD2F5F309104063061309304063091DF
:1029500004063F7E30930406220F3091080633FDB3
:102960002F5F3091040630613093040630910406E5
:102970003F7E30930406220F3091080633FD2F5F0F
:1029800030910406306130930406309104063F7E96
:1029900030930406220F3091080633FD2F5F3091EB
:1029A0000406306130930406309104063F7E309374
:1029B0000406220F3091080633FD2F5F3091040684
:1029C000306130930406309104063F7E3093040654
:1029D000220F3091080633FD2F5F309104063061DD
:1029E00030930406309104063F7E30930406220F94
:1029F0003091080633FD2F5F30910406306130932B
:102A00000406309104063F7E30930406FC012193B6
:102A1000CF01E617F70709F081CF0895A1E0B0E0F4
:102A2000E4E1F5E10C94742108E813E161E070E061
:102A3000CE0101966CDF89818F3F41F084E690E002
:102A4000BCDE015011090115110581F781E090E00C
:102A50000115110511F480E090E02196E4E00C945A
:102A60008D21A1E0B0E0E7E3F5E10C947621E0E010
:102A7000F6E084818062848361E070E0CE0101969B
:102A800046DF2196E2E00C948F21A3E0B0E0EBE476
:102A9000F5E10C947621809104068F7D80930406E5
:102AA00061E070E0CE01019632DFB8DF009731F4CB
:102AB0008A839B83D6DF8A819B8102C081E090E07C
:102AC0002396E2E00C948F21A2E0B0E0EAE6F5E183
:102AD0000C9470217C016B0108EE13E061E070E062
:102AE000CE01019614DF89818F3F71F089818E3F7D
:102AF000A1F4B601C7010BDF62E070E0CE010196E0
:102B000006DF81E090E00BC084E690E056DE0150E5
:102B100011090115110511F7E9CF80E090E0229627
:102B2000E8E00C948921A7E0B0E0E9E9F5E10C9434
:102B30007121182F042FF52EE62ED72E87FF08C0FF
:102B400040E050E0BA0187E3EEDF823078F51F778E
:102B500088DF9BDF892B49F1812F80648983DA82AA
:102B6000EB82FC820D83112321F0183021F081E0EB
:102B700003C085E901C087E88E8366E070E0CE017E
:102B8000019621DE1C3029F461E070E0CE01079649
:102B9000BEDE1AE061E070E0CE010796B8DE8F81FC
:102BA00087FF04C01150B1F701C08FEF2796E7E00F
:102BB0000C948A21A2E0B0E0E0EEF5E10C947321E0
:102BC0008C01F62E2BDF009719F1F98261E070E09D
:102BD000CE010196F8DD8DEFF816C1F060E072E0ED
:102BE000C801F1DD62E070E0CE01019690DE61E0A7
:102BF00070E0CE0101968BDE89818F7131E020E09B
:102C0000853009F030E0832F922F02C081E090E000
:102C10002296E5E00C948C21811103C08091012063
:102C2000089581E00895A4E0B0E0E9E1F6E10C94B4
:102C30007221811188C080E197E2BFDD8091010699
:102C4000806280930106809104068062809304066E
:102C500080910106806180930106809104068F7E39
:102C600080930406809101068064809301061AE037
:102C700061E070E0CE0101964ADE1150C9F740E0F4
:102C800050E0BA0180E04FDF813009F051C04AEADC
:102C900051E060E070E088E046DF813001F564E0FB
:102CA00070E0CE01019633DE8B81813009F040C0A7
:102CB0008C818A3A09F03CC008EE13E040E050E015
:102CC00060E070E489EA2FDF882359F188EE93E011
:102CD00074DD015011090115110581F729C040E08B
:102CE00050E0BA0189EA1FDF823028F499EAE92E20
:102CF00022E0F22E04C0EE24E394FF24F39408EEC5
:102D000013E040E050E0BA018E2D0DDF882359F129
:102D100088EE93E052DD015011090115110589F784
:102D200007C040E050E0BA018AE3FDDE882369F085
:102D3000F12CF092C22311E0F11010E01093012069
:102D400090DE812F19C083E017C064E070E0CE01EF
:102D50000196DDDD898186FF03C03CE0F32EE9CFDB
:102D600084E0F82EE6CF40E052E060E070E080E1E1
:102D7000DADE8111DDCFDDCF2496E6E00C948B21E5
:102D80000F93CF93DF93EB01BA01A901811103C027
:102D90008091012001C081E080FD32C08091C2237A
:102DA00083FD07C0E9E0440F551F661F771FEA95B2
:102DB000D1F7013061F481E1B6DE81111AC060E023
:102DC00072E0CE0181DE892BA1F000E012C082E129
:102DD000AADE81110EC060E072E0CE0175DE892BA3
:102DE00019F0DE5F0150B9F740E050E0BA018CE025
:102DF0009ADE37DE81E090E0011104C080E002C07D
:102E000083E090E0DF91CF910F910895CF92DF9210
:102E1000EF92FF920F93CF93DF93EB0169017A0159
:102E2000811103C08091012001C081E080FD3EC07E
:102E30008091C22383FD07C0F9E0CC0CDD1CEE1CA1
:102E4000FF1CFA95D1F7013069F4B701A60188E1BA
:102E50006ADE811124C06EEFCE01ACDE892BF9F061
:102E600000E01DC0867031F0402F50E060E070E05F
:102E700087E959DEB701A60189E155DE81110FC04E
:102E80006CEFCE0197DE892B19F0DE5F0150C1F7A0
:102E90006DEF80E090E08EDE892B09F401E0E1DD4A
:102EA00081E090E0011104C080E002C083E090E086
:102EB000DF91CF910F91FF90EF90DF90CF90089529
:102EC000A0E1B0E0E6E6F7E10C9474218A018111FB
:102ED00003C08091012001C081E080FD7DC0613090
:102EE00089F040F0633009F072C080E890E0A0E023
:102EF000B0E066C0CADD01E010E0892B09F469C0CA
:102F000000E067C040E050E0BA0189E00CDE8823B1
:102F100011F001E05DC060E170E0CE010196D4DD0A
:102F2000892BB9F39981929596959695937088859A
:102F300029855A859130D9F48F7390E0A0E0B0E0F4
:102F4000DC01992788270196A11DB11D30E0322FA1
:102F50002227250F311D820F931FA11DB11D5AE09D
:102F6000880F991FAA1FBB1F5A95D1F729C0229518
:102F7000269526952370F4E08F9FC0011124820FBF
:102F8000911D01962F81237030E0322F2227330FBD
:102F9000330F820F931FA0E0B0E02E812F704B857E
:102FA000441F4427441F240F352F3370330F230F42
:102FB000275004C0880F991FAA1FBB1F2A95D2F75C
:102FC000F80180839183A283B38300E001C004E011
:102FD00010E047DDC80102C083E090E06096E4E0C5
:102FE0000C948D21EF92FF920F931F93CF93DF9359
:102FF0008C0186E090E00E947B237C018091C323BA
:103000009091C42301968093C3239093C423E11429
:10301000F10441F4609122297091232988E593E21B
:103020000E942D258BE090E00E947B23EC01809193
:10303000C3239091C42301968093C3239093C42308
:10304000209741F4609122297091232985E793E22A
:103050000E942D25F8018081918188839983828146
:103060008A83838194818B839C8385818D838681F0
:1030700097818E839F8380858887818592858987C4
:103080009A87F701C083D18312821382148215823A
:10309000C701CDB7DEB7E6E00C948B210F931F93E9
:1030A000CF93DF938C0186E090E00E947B23EC01BC
:1030B000009741F4609122297091232987E993E2D6
:1030C0000E942D25088319831A821B821C821D826F
:1030D000CE01DF91CF911F910F910895CF93DF9390
:1030E000DC01FB01CD91DC911197209739F46D93B0
:1030F0007C9312821382148215820BC06C837D83B1
:103100008D919C91119782839383148215826D9384
:103110007C93DF91CF910895FC01309769F0A081F5
:10312000B1818D919C918617970721F00280F381E0
:10313000E02DF3CFCF01089580E090E00895CF9384
:10314000DF93EC01A881B981109701F1FD01648141
:1031500075818D919C9111976115710571F0EB014D
:1031600028813981E90148815981EC01288139811F
:103170002417350714F4FB01EACF208131818083C5
:1031800091832D933C93A281B381DECFDF91CF91C8
:103190000895FB0180819181FA0120813181FB0139
:1031A00020833183FA01808391830895CF93DF9345
:1031B000DB01FA01109719F4BA0190DF15C01296DD
:1031C000CD91DC911397209739F0C283D383648328
:1031D00075834C835D8304C012821382648375837C
:1031E0001296ED93FC931397DF91CF910895CF93AF
:1031F000DF93EC01FB01A881B981A617B707B1F4F1
:103200001296ED91FC911397309729F0E883F9839A
:103210001482158202C01882198212961D921C9285
:10322000139714961D921C92159722C0A481B58104
:10323000C281D381109759F0209749F01296CD930F
:10324000DC931397C281D381AC83BD830DC02097DB
:1032500029F0AB2B49F41C821D8206C0109721F087
:1032600012961D921C921397128213821482158259
:10327000DF91CF910895CF93DF93EB01B8DFCE01BB
:103280000E941324DF91CF9108950F931F93CF9342
:10329000DF938C01EB01888199810E941324BE0188
:1032A000C801E9DFDF91CF911F910F910895EF924F
:1032B000FF920F931F93CF93DF93EC018B017A0161
:1032C000209759F088819981009719F0B701F8018A
:1032D00019950A80DB81C02DF3CFCDB7DEB7E6E0CC
:1032E0000C948B21FC01828193810895FC018481DF
:1032F00095810895FC01808191810895FC01808170
:1033000091810895FC01613011F482810895623049
:1033100011F485810895633011F4808508958FEF4D
:103320000895FC01613019F483819481089562301D
:1033300019F4868197810895633019F48185928507
:1033400008958FEF9FEF0895FC01413011F46283DF
:103350000895423011F465830895433011F4608775
:10336000089581E090E00E943028FC01772767FDF6
:103370007095413019F4638374830895423019F4D1
:10338000668377830895433019F4618772870895BF
:1033900081E090E00E943028FC01608371830895F1
:1033A000EF92FF920F931F93CF93DF938C01FC0159
:1033B000C081D181209789F0888199810E9413244E
:1033C000EA80FB80CE010E941324E114F10411F085
:1033D000E701F2CFF80110821182CDB7DEB7E6E047
:1033E0009AC70F931F93CF93DF93EC018881998144
:1033F000009761F0FC01028113810E9413240115E2
:10340000110511F0C801F6CF18821982DF91CF9112
:103410001F910F9108951F920F920FB60F921124D2
:103420002F933F938F939F938091A80684FD5AC05A
:103430008091132681110CC08091A80682FD2AC0BC
:1034400081E08093132610921726109215264AC009
:10345000209117262830A0F48091A80681FF0CC087
:103460003091152681E090E0022E01C0880F0A9469
:10347000EAF7382B309315262F5F2093172632C09A
:10348000283021F489E0809317262CC0109213264F
:103490001092172680911526803F21F481E08093B9
:1034A000142620C080911526803EE1F090911526CB
:1034B00080911426923121F090911526993559F476
:1034C000811104C081E08093DE230CC01092DE23C2
:1034D0001092142607C0823011F41092142681E055
:1034E000809318269F918F913F912F910F900FBE3F
:1034F0000F901F90189582E08093500080915100AA
:1035000081FFFCCF88ED84BF81E0809340008093F1
:1035100060000895E82FF0E0E853FE4F8491909109
:10352000DE23911180528093C5230895809118263F
:103530008823E1F380911426813019F482E080938E
:10354000142610921826809115260895109213269D
:103550001092152610921726E0EAF6E089EF818393
:1035600088E1818B8AE1828B84E0838788E0818790
:10357000E0EAF0E082818160828308951F920F92D9
:103580000FB60F9211240BB60F922F933F938F9388
:103590009F93EF93FF938091C823882359F18091E3
:1035A0001620882301F1E091DC23F091DD23809146
:1035B0001B2090911C208E0F9F1F8093DA239093E5
:1035C000DB23EF2FFF27E65EF94D208130E02093CB
:1035D000D8233093D9238093DC239093DD23209349
:1035E0002809309329098091D72391E08927809376
:1035F000D72304C01092280910922909FF91EF9156
:103600009F918F913F912F910F900BBE0F900FBE06
:103610000F901F9018951F920F920FB60F921124C2
:103620000BB60F922F933F938F939F93EF93FF933C
:103630008091C723882359F180911620882301F1B6
:10364000E091D523F091D6238091192090911A20F2
:103650008E0F9F1F8093D3239093D423EF2FFF27A8
:10366000E65EF84D208130E02093D1233093D223C1
:103670008093D5239093D62320932A0930932B0946
:103680008091D02391E089278093D02304C01092A9
:103690002A0910922B09FF91EF919F918F913F91F1
:1036A0002F910F900BBE0F900FBE0F901F9018958B
:1036B0001F920F920FB60F9211240BB60F922F93F9
:1036C0003F938F939F93EF93FF938091C62388231B
:1036D00059F180911620882301F1E091CE23F091D9
:1036E000CF2380911720909118208E0F9F1F8093D9
:1036F000CC239093CD23EF2FFF27E65EF74D20815B
:1037000030E02093CA233093CB238093CE23909331
:10371000CF2320932C0930932D098091C92391E068
:1037200089278093C92304C010922C0910922D0977
:10373000FF91EF919F918F913F912F910F900BBE31
:103740000F900FBE0F901F901895613019F4809361
:10375000C8230895623019F48093C7230895633015
:1037600011F48093C6230895813019F41092C82370
:103770000895823019F41092C7230895833011F40C
:103780001092C623089581110CC0E8E4F2E0AAE18A
:10379000B6E284918D93319683E0E834F807C9F757
:1037A0000895813061F4E8E4F2E0AAE1B7E284919F
:1037B0008D93319683E0E834F807C9F70895823095
:1037C00059F4E8E4F2E0AAE1B8E284918D933196ED
:1037D00083E0E834F807C9F70895CF93DF938111A8
:1037E0000AC0CAE1D6E20E94EB24899387E2CA317B
:1037F000D807C9F717C0813051F4CAE1D7E20E9457
:10380000EB24899388E2CA31D807C9F70BC082300C
:1038100049F4CAE1D8E20E94EB24899389E2CA31D3
:10382000D807C9F7DF91CF910895811110C0EAE15F
:10383000F6E2119286E2EA39F807D9F7EAE9F6E208
:103840008FEF819397E2EA31F907D9F70895813034
:1038500081F4EAE1F6E2119286E2EA39F807D9F753
:10386000EAE9F6E28FEF819397E2EA31F907D9F7B7
:103870000895823079F4EAE1F6E2119286E2EA39BB
:10388000F807D9F7EAE9F6E28FEF819397E2EA3198
:10389000F907D9F70895E0E0F8E081E080838FEF41
:1038A00090E0809326089093270885E18783E0EADB
:1038B000F0E0828183688283789481E080930009BC
:1038C00083E7809301098FEF90E08093260990931E
:1038D00027098FEFE0E6F6E081830895813071F0EB
:1038E0001CF4882331F00895823069F0833081F030
:1038F00008956093280970932909089560932A090F
:1039000070932B09089560932C0970932D090895E5
:1039100060932E0970932F090895BC0180911620A1
:10392000882379F0CB01A0E0B0E07727662724E276
:1039300034EF40E050E0A8D420931B2030931C20AB
:103940000895F8949B01220F331F40E050E060E09F
:1039500078E488EE91E098D42093280830932908E1
:103960000895BC0180911620882379F0CB01A0E056
:10397000B0E07727662724E234EF40E050E084D4BB
:103980002093192030931A200895F8949B01220F58
:10399000331F40E050E060E078E488EE91E074D4BA
:1039A00020932A0830932B080895BC01809116209B
:1039B000882379F0CB01A0E0B0E07727662724E2E6
:1039C00034EF40E050E060D420931720309318206B
:1039D0000895F8949B01220F331F40E050E060E00F
:1039E00078E488EE91E050D420932C0830932D0891
:1039F000089582E0809350008091510081FFFCCFB8
:103A000088ED84BF81E0809340008093600008953A
:103A1000A0E5B1E0EDE0FDE15AC40E94630296DD4D
:103A2000E8DF39DF0E94F00180E0ADDE81E0ABDE4F
:103A300082E0A9DE82E0D1DE3E0125ED621A2EEFA2
:103A4000720AC3010496C15BDE4F88839983CF5409
:103A5000D14025E9422E22E2522E0E9423028AE51D
:103A600091E20E944B0288E0E1E3F0E2DE01A15C1A
:103A7000BE4F01900D928A95E1F7312CC32CC5946D
:103A8000CC0CDD0846019FEF891A990ADE01A15C82
:103A9000BE4F7D0100E010E0A32CBB24A7FCB09436
:103AA00000FD03C00E94230202C00E94260280166D
:103AB0009106C4F00C151D05ACF0A016B10661F41A
:103AC000F501EE0FFF1F8FE391E08C0F9D1FE80FB4
:103AD000F91F8081918104C0D7018D919C9102963C
:103AE0000E944B020F5F1F4FB2E0EB0EF11C04303F
:103AF0001105B1F61BDD90911426911136C18A355E
:103B000009F02CC1332009F424C3E1E03E1609F486
:103B1000B4C1F2E03F1609F430C123E0321609F4D3
:103B200067C093E0392EAACF94E039129FC10E945A
:103B3000F0010E9423028FE892E20E944B02D3011F
:103B40001D921D921D921C92139786E0C15BDE4F61
:103B5000E881F981CF54D14011928A95E9F761E06B
:103B600081E0F3DDC12CD12C20EFE22E21E4F22EF6
:103B700020E030E04AE754E4C701B60159D520E01F
:103B80003EE64AE856E4E2D320E030EA45EF54E46A
:103B900046D4ADD4CB01C1DEC701B601A8D47F9312
:103BA0006F935F924F927F926F9282D70E9426020C
:103BB000C3010E944B02BADC0F900F900F900F9040
:103BC0000F900F9080911426811109C020E030E001
:103BD00048E453E4C701B601BAD36B017C0120E08D
:103BE00030E84BE356E4C701B60115D487FDC0CFDA
:103BF0000E94F0010E94230280E691E20E944B02A3
:103C0000109218260E94230280E691E20E944B0245
:103C10008FEF97EAA1E681509040A040E1F700C005
:103C200000000E94230289E691E20E944B020E945A
:103C3000260287E791E20E944B02BFEFE7EAF1E636
:103C4000B150E040F040E1F700C000000E942302C4
:103C500084E891E20E944B020E94260282E991E2EE
:103C60000E944B022FEF87EA91E62150804090405E
:103C7000E1F700C000000E9423028FE991E20E9458
:103C80004B020E9426028DEA91E20E944B02AFEFA6
:103C9000B3EDE0E3A150B040E040E1F700C0000028
:103CA0000E9426028CEB91E20E944B02FFEF27EA72
:103CB00081E6F15020408040E1F700C000000E9402
:103CC00026028BEC91E20E944B029FEFA7EAB1E63D
:103CD0009150A040B040E1F700C000000E942602D1
:103CE00087ED91E20E944B02EFEFF7EA21E6E15007
:103CF000F0402040E1F700C000000E94230285EE62
:103D000091E20E944B020E94260287EF91E20E94FC
:103D10004B028FEF97EAA1E681509040A040E1F777
:103D200000C000000E94230283E092E20E944B0246
:103D30000E94260285E192E20E944B02BFEFE3ED72
:103D4000F0E3B150E040F040E1F700C000000E9415
:103D5000260282E292E20E944B027FCE823711F469
:103D6000339403C0853709F43A9413140CF085CECC
:103D700023E023150CF4D5CE81CE0E9423028AE0E5
:103D8000E9E3F0E2DE01AB5CBE4F01900D928A9553
:103D9000E1F7312CC32CC594CC0CDD0846018FEF24
:103DA000881A980ADE01AB5CBE4F7D0100E010E08E
:103DB000A32CBB24A7FCB09400FD03C00E942302E7
:103DC00002C00E94260280169106C4F00C151D0543
:103DD000ACF0A016B10661F4F501EE0FFF1F85E30C
:103DE00091E08C0F9D1FE80FF91F8081918104C025
:103DF000D7018D919C9102960E944B020F5F1F4F3D
:103E0000B4E03B1208C000FF06C00E94260282EF09
:103E100090E20E944B02E2E0EE0EF11C053011052B
:103E200059F684DB9091142691111DC08A35A1F4B6
:103E3000332009F412CEF1E03F1202C080E009C045
:103E400022E0321202C081E004C083E038126CCE5E
:103E500082E00E94AB029ECF823711F4339403C0FC
:103E6000853709F43A9413140CF093CFA4E0A3150A
:103E70000CF090CFB4E03B2E8DCF61EE73E280E08A
:103E80000E94630B80E290E036D48093DF2390930E
:103E9000E0234AE060E372E20E947B0B892B99F4F5
:103EA0009E01235B3E4F4FE350E069E372E2809155
:103EB000DF239091E0230E944D0F8091DF239091AA
:103EC000E0230E9403117E01BCEEEB1ABEEFFB0A59
:103ED0008CE0F70111928A95E9F7C95BDE4F1882F1
:103EE00019821A821B82C754D140AE01495B5E4FD2
:103EF000B7018CEB93E20E948B128E010F5F1F4F74
:103F0000892BE9F4C85BDE4F8881C854D1408F9378
:103F1000C95BDE4F8881C754D1408F93FF92EF92E7
:103F200089E792E29F938F931F930F93C1D50E94CD
:103F30002302C8010E944B027894CDBFDEBF1982D4
:103F40001A821B821C82FE0135968CE7DF011D92CE
:103F50008A95E9F741E060E372E28091DF23909176
:103F6000E0230E947B0B892B89F49E0133954FEF50
:103F700050E0B8018091DF239091E0230E942B0E46
:103F80008091DF239091E0230E94031182E090E072
:103F9000B2D3C55BDE4F88839983CB54D140D12CFB
:103FA000B801FB0131968F01819181111DC078010B
:103FB000E61AF70AA701CE01939538D5E0E0F1E0C3
:103FC000EC0FFD1FEE0DFF1D1082CE01939511D554
:103FD000C55BDE4F28813981CB54D140232B49F476
:103FE00082E892E20E949E028C3209F38A33D9F66B
:103FF000DECFD1100BC0C05EDE4F8883C052D140EF
:10400000CF5DDE4F9883C152D14044C0B1E0DB1296
:1040100006C0CE5DDE4F8883C252D1403BC0E2E095
:10402000DE120BC0CD5DDE4F8883C352D140CC5D24
:10403000DE4F9883C452D1402DC0F3E0DF1206C09A
:10404000CB5DDE4F8883C552D14024C024E0D2121C
:104050000BC0CA5DDE4F8883C652D140C95DDE4FBA
:104060009883C752D14016C0A5E0DA1206C0C85DD9
:10407000DE4F8883C852D1400DC0B6E0DB120AC0C3
:10408000C75DDE4F8883C952D140C65DDE4F98833D
:10409000CA52D140CE01805E9E4F0E94F217BC01F1
:1040A000CE01855B9E4F1AD8B8016F5F7F4FD394C6
:1040B000F80180818A3311F4D12C73CF811171CF33
:1040C000CE01855B9E4F3BD8E12CF12CB701C55B3F
:1040D000DE4F88819981CB54D1401ED8892B31F194
:1040E000B701C55BDE4F88819981CB54D14014D88C
:1040F000DC010D911C9161E0C80104D961E025DB70
:1041000061E0C8010ED909DC62E0C801FBD862E0B9
:104110001CDB62E0C80105D924DC63E0C801F2D8E9
:1041200063E013DB63E0C801FCD83FDCBFEFEB1AB0
:10413000FB0AEFE0EE16F10411F4E12CF12CFFEF95
:1041400023EC89E0F15020408040E1F700C00000FE
:10415000BDCF0E94F0010E9423028AE591E20E94F5
:104160004B0287ED90E0D9DB81E191E0FADB552449
:104170005A94809118268823E1F3D8D9782ECAD989
:10418000682E53E4A52E50E2B52E68EFE62EFF24EC
:10419000FA9470EFC72EDD24DA9400E010E0872C4B
:1041A000912C80910020992787FD9095881599057D
:1041B000A9F1D5018C91681231C08091142681112A
:1041C0002DC0083011055CF4F801EE0FFF1FE3521B
:1041D000FF4D80819181A1DB61E081E0B6DAB8E03A
:1041E000EB16F10468F4F801E770FF27EE0FFF1FEC
:1041F000E352FF4D80819181B4DB62E081E0A5DA7A
:10420000E8E0CE16D10440F4C801877099270596DE
:10421000CCDB63E081E099DA70920020D5018D91CA
:104220005D0168121AC0809114268823B1F008300D
:1042300011051CF461E080E088DAB8E0EB16F104C7
:1042400018F462E080E081DAE8E0CE16D10418F4D8
:1042500063E080E07ADA509200200F5F1F4FFFEF9B
:10426000CF1ADF0A2FEFE21AF20A0831110509F01E
:1042700098CF7FCF5CD0A59F900DB49F900DA49F49
:10428000800D911D11240895A1E21A2EAA1BBB1BBB
:10429000FD010DC0AA1FBB1FEE1FFF1FA217B30712
:1042A000E407F50720F0A21BB30BE40BF50B661F28
:1042B000771F881F991F1A9469F7609570958095EC
:1042C00090959B01AC01BD01CF0108952F923F92C3
:1042D0004F925F926F927F928F929F92AF92BF9216
:1042E000CF92DF92EF92FF920F931F93CF93DF93C2
:1042F000CDB7DEB7CA1BDB0BCDBFDEBF19942A8852
:10430000398848885F846E847D848C849B84AA84E9
:10431000B984C884DF80EE80FD800C811B81AA8176
:10432000B981CE0FD11DCDBFDEBFED010895A29F93
:10433000B001B39FC001A39F700D811D1124911D79
:10434000B29F700D811D1124911D08955058BB27F7
:10435000AA270ED033C124D130F029D120F031F476
:104360009F3F11F41EF419C10EF4E095E7FB0FC155
:10437000E92F35D180F3BA176207730784079507D1
:1043800018F071F49EF54DC10EF4E0950B2EBA2F86
:10439000A02D0B01B90190010C01CA01A00111244B
:1043A000FF27591B99F0593F50F4503E68F11A16F7
:1043B000F040A22F232F342F4427585FF3CF469588
:1043C00037952795A795F0405395C9F77EF41F16AA
:1043D000BA0B620B730B840BBAF09150A1F0FF0F74
:1043E000BB1F661F771F881FC2F70EC0BA0F621F60
:1043F000731F841F48F4879577956795B795F79550
:104400009E3F08F0B3CF9395880F08F09927EE0FE1
:1044100097958795089597D008F481E008950CD07A
:10442000CDC0C5D040F0BCD030F021F45F3F19F0D2
:10443000AEC05111F7C0B1C0D2D098F39923C9F3DF
:104440005523B1F3951B550BBB27AA27621773079A
:10445000840738F09F5F5F4F220F331F441FAA1F4E
:10446000A9F333D00E2E3AF0E0E830D0915050400E
:10447000E695001CCAF729D0FE2F27D0660F771FBC
:10448000881FBB1F261737074807AB07B0E809F09E
:10449000BB0B802DBF01FF2793585F4F2AF09E3F33
:1044A000510568F074C0BEC05F3FECF3983EDCF38A
:1044B000869577956795B795F7959F5FC9F7880FAC
:1044C000911D9695879597F90895E1E0660F771FFE
:1044D000881FBB1F621773078407BA0720F0621B8F
:1044E000730B840BBA0BEE1F88F7E09508957FD00D
:1044F00088F09F5790F0B92F9927B751A0F0D1F0CD
:10450000660F771F881F991F1AF0BA95C9F712C056
:10451000B13081F086D0B1E0089583C0672F782F45
:104520008827B85F39F0B93FCCF3869577956795C2
:10453000B395D9F73EF490958095709561957F4F2E
:104540008F4F9F4F0895990F0008550FAA0BE0E871
:10455000FEEF16161706E807F907C0F01216130645
:10456000E407F50798F0621B730B840B950B39F485
:104570000A2661F0232B242B252B21F408950A26EB
:1045800009F4A140A6958FEF811D811D089597F92B
:104590009F6780E870E060E008959FEF80EC0895E9
:1045A00000240A9416161706180609060895002412
:1045B0000A9412161306140605060895092E03948C
:1045C000000C11F4882352F0BB0F40F4BF2B11F400
:1045D00060FF04C06F5F7F4F8F4F9F4F089557FD5F
:1045E0009058440F551F59F05F3F71F04795880F61
:1045F00097FB991F61F09F3F79F0879508951216F8
:1046000013061406551FF2CF4695F1DF08C01616A3
:1046100017061806991FF1CF869571056105089454
:104620000895E894BB2766277727CB0197F908956B
:104630000BD0C4CFB5DF28F0BADF18F0952309F00E
:10464000A6CFABCF1124EECFCADFA0F3959FD1F355
:10465000950F50E0551F629FF001729FBB27F00D30
:10466000B11D639FAA27F00DB11DAA1F649F662785
:10467000B00DA11D661F829F2227B00DA11D621FD4
:10468000739FB00DA11D621F839FA00D611D221F8E
:10469000749F3327A00D611D231F849F600D211D72
:1046A000822F762F6A2F11249F5750408AF0E1F015
:1046B00088234AF0EE0FFF1FBB1F661F771F881F5E
:1046C00091505040A9F79E3F510570F060CFAACF9E
:1046D0005F3FECF3983EDCF3869577956795B79549
:1046E000F795E7959F5FC1F7FE2B880F911D969573
:1046F000879597F90895CF93DF938230910510F451
:1047000082E090E0E0911C29F0911D2920E030E04A
:10471000A0E0B0E0309739F1408151814817590746
:10472000B8F04817590771F482819381109729F0E6
:1047300012968D939C9313972CC080931C29909371
:104740001D2927C02115310531F04217530718F0F4
:10475000A901DB0101C0EF019A01BD01DF01028067
:10476000F381E02DD7CF21153105F9F0281B390B46
:104770002430310580F48A819B816115710521F017
:10478000FB018283938304C080931C2990931D298D
:10479000FE01329644C0FE01E20FF31F8193919314
:1047A00022503109288339833AC020911A29309147
:1047B0001B29232B41F420911F203091202020938E
:1047C0001A2930931B2920911D2030911E2021157C
:1047D000310541F42DB73EB7409121205091222060
:1047E000241B350BE0911A29F0911B29E217F307DE
:1047F000A0F42E1B3F0B2817390778F0AC014E5F51
:104800005F4F2417350748F04E0F5F1F40931A295A
:1048100050931B298193919302C0E0E0F0E0CF0117
:10482000DF91CF910895CF93DF93009709F487C06C
:10483000FC01329712821382C0911C29D0911D294C
:10484000209781F420813181280F391F80911A2906
:1048500090911B298217930779F5E0931A29F09319
:104860001B296DC0DE0120E030E0AE17BF0750F419
:1048700012964D915C9113979D014115510509F1D7
:10488000DA01F3CFA283B38340815181840F951F56
:104890008A179B0771F48D919C911197840F951F36
:1048A00002968083918312968D919C9113978283B7
:1048B00093832115310529F4E0931C29F0931D29D8
:1048C0003EC0D9011296ED93FC9313974D915D91E3
:1048D000A40FB51FEA17FB0779F480819181840F3B
:1048E000951F0296D9018D939C9311978281938194
:1048F00012968D939C931397E0E0F0E08A819B8160
:10490000009719F0FE01EC01F9CFCE010296288143
:104910003981820F931F20911A2930911B29281762
:10492000390769F4309729F410921C2910921D2937
:1049300002C012821382C0931A29D0931B29DF91DF
:10494000CF9108958F929F92AF92BF92CF92DF92B4
:10495000EF92FF92CF93DF93EC01688179818A8196
:104960009B81611571058105910521F464E279ED62
:104970008BE597E02DE133EF41E050E055D349015D
:104980005A019B01AC01A7EAB1E474DC6B017C0124
:10499000ACEEB4EFA501940143D3C60ED71EE81EBA
:1049A000F91EF7FE06C081E0C81AD108E10880E8C8
:1049B000F80AC882D982EA82FB82C6019F77DF911A
:1049C000CF91FF90EF90DF90CF90BF90AF909F90EE
:1049D0008F900895B7CF83E290E2B4CFA0E0B0E02B
:1049E0008093232090932420A0932520B093262009
:1049F0000895FC0188279927E89421912032E9F352
:104A0000293010F02E30C8F32B3239F02D3231F42A
:104A1000689403C01AD0820F911D219120532A302F
:104A2000C8F31EF4909581959F4F0895FB01DC011A
:104A30004150504048F001900D920020C9F701C04C
:104A40001D9241505040E0F708957AE0979F902DD5
:104A5000879F802D910D11240895EF92FF920F935F
:104A60001F93CF93DF938B01DB0113962C9121FFD2
:104A700016C0EC01E12CF12C8991882371F0D8014A
:104A80001896ED91FC911997B8011995892BA1F30E
:104A9000EE24EA94FF24FA94EFCFC70102C08FEF0F
:104AA0009FEFDF91CF911F910F91FF90EF900895AD
:104AB0000F931F93CF93DF93CDB7DEB72E97CDBF64
:104AC000DEBF0E891F8986E08C8309831A838FEFEE
:104AD0009FE78D839E83AE01465E5F4F688D798D23
:104AE000CE0101960DD0EF81F885E00FF11F108205
:104AF0002E96CDBFDEBFDF91CF911F910F9108950C
:104B00002F923F924F925F926F927F928F929F92DD
:104B1000AF92BF92CF92DF92EF92FF920F931F93CB
:104B2000CF93DF93CDB7DEB72C97CDBFDEBF7C012F
:104B30006B018A01FC0116821782838181FFB0C15B
:104B4000CE0101964C01F7019381F60193FD859109
:104B500093FF81916F01882309F49EC1853239F456
:104B600093FD859193FF81916F01853221F4B70107
:104B700090E0C4D1E8CF512C312C20E02032A0F4B9
:104B80008B3269F030F4803259F0833269F420615D
:104B90002CC08D3239F0803339F4216026C0226078
:104BA000246023C0286021C027FD27C030ED380FC6
:104BB0003A3078F426FF06C0FAE05F9E300D1124EB
:104BC000532E13C08AE0389E300D1124332E2062FC
:104BD0000CC08E3221F426FD5FC1206406C08C36E5
:104BE00011F4206802C0883641F4F60193FD8591E6
:104BF00093FF81916F018111C1CF982F9F7D9554B3
:104C0000933028F40C5F1F4FFFE3F9830DC0833608
:104C100031F0833771F0833509F057C021C0F801B6
:104C2000808189830E5F1F4F44244394512C54018B
:104C300014C03801F2E06F0E711CF801A080B18041
:104C400026FF03C0652D70E002C06FEF7FEFC50146
:104C50002C8749D12C0183012C852F77222E16C059
:104C60003801F2E06F0E711CF801A080B18026FFC0
:104C700003C0652D70E002C06FEF7FEFC5012C8788
:104C800027D12C012C852068222E830123FC19C0FA
:104C9000832D90E048165906A0F4B70180E290E019
:104CA0002DD13A94F5CFF50127FC859127FE81910E
:104CB0005F01B70190E022D131103A94F1E04F1A30
:104CC00051084114510479F7DEC0843611F0893659
:104CD00031F5F80127FF07C06081718182819381DE
:104CE0000C5F1F4F08C060817181882777FD809518
:104CF000982F0E5F1F4F2F76B22E97FF09C0909509
:104D00008095709561957F4F8F4F9F4F2068B22E91
:104D10002AE030E0A40124D1A82EA81843C085378A
:104D200029F42F7EB22E2AE030E025C0F22FF97F41
:104D3000BF2E8F36C1F018F4883579F0ADC08037BA
:104D400019F0883721F0A8C02F2F2061B22EB4FEB1
:104D50000DC08B2D8460B82E09C024FF0AC09F2F80
:104D60009660B92E06C028E030E005C020E130E0B2
:104D700002C020E132E0F801B7FE07C06081718116
:104D8000828193810C5F1F4F06C06081718180E03A
:104D900090E00E5F1F4FA401E3D0A82EA818FB2DB2
:104DA000FF77BF2EB6FE0BC02B2D2E7FA51450F41F
:104DB000B4FE0AC0B2FC08C02B2D2E7E05C07A2C92
:104DC0002B2D03C07A2C01C0752C24FF0DC0FE01D1
:104DD000EA0DF11D8081803311F4297E09C022FF84
:104DE00006C07394739404C0822F867809F073947C
:104DF00023FD12C020FF06C05A2C731418F4530C64
:104E00005718732C731460F4B70180E290E02C877C
:104E100075D073942C85F6CF731410F4371801C035
:104E2000312C24FF11C0B70180E390E02C8766D0BD
:104E30002C8522FF16C021FF03C088E590E002C048
:104E400088E790E0B7010CC0822F867851F021FDF1
:104E500002C080E201C08BE227FD8DE2B70190E045
:104E60004DD0A51430F4B70180E390E047D05A94B8
:104E7000F8CFAA94F401EA0DF11D8081B70190E00A
:104E80003DD0A110F6CF332009F45DCEB70180E20A
:104E900090E034D03A94F7CFF7018681978102C031
:104EA0008FEF9FEF2C96CDBFDEBFDF91CF911F918B
:104EB0000F91FF90EF90DF90CF90BF90AF909F90B9
:104EC0008F907F906F905F904F903F902F900895BC
:104ED000FC010590615070400110D8F780959095C5
:104EE0008E0F9F1F0895FC016150704001900110CA
:104EF000D8F7809590958E0F9F1F08950F931F935D
:104F0000CF93DF93182F092FEB018B8181FD03C015
:104F10008FEF9FEF20C082FF10C04E815F812C81F8
:104F20003D81421753077CF4E881F9819F012F5F8F
:104F30003F4F28833983108306C0E885F985812F88
:104F40001995892B29F72E813F812F5F3F4F2E83A3
:104F50003F83812F902FDF91CF911F910F91089563
:104F6000FA01AA27283051F1203181F1E8946F939A
:104F70006E7F6E5F7F4F8F4F9F4FAF4FB1E03ED040
:104F8000B4E03CD0670F781F891F9A1FA11D680FDE
:104F9000791F8A1F911DA11D6A0F711D811D911D11
:104FA000A11D20D009F468943F912AE0269F112486
:104FB0003019305D3193DEF6CF010895462F4770EA
:104FC000405D4193B3E00FD0C9F7F6CF462F4F7045
:104FD000405D4A3318F0495D31FD4052419302D0A3
:104FE000A9F7EACFB4E0A695979587957795679549
:104FF000BA95C9F700976105710508959B01AC0149
:105000000A2E06945795479537952795BA95C9F76F
:10501000620F731F841F951FA01D0895B7FF2AC933
:1050200029D9821B930B0895052E97FB16F4009443
:105030000FD057FD05D028D907FC02D046F408C090
:1050400050954095309521953F4F4F4F5F4F0895B4
:1050500090958095709561957F4F8F4F9F4F0895E4
:04506000F894FFCFF2
:10506400FF0120202020202020202020202020207C
:10507400202000000000016400640064000000249B
:105084002920000100000003211221232136214898
:10509400219C22AD22BE22CF22E022F1220323153D
:1050A40023272371776572747975696F70617364EE
:1050B4006667686A6B6C7A786376626E6D809A90C4
:1050C400418E418F804545454949498E8F90929242
:1050D4004F994F555559999A9B9C9D9E9F41494F75
:1050E40055A5A5A6A7A8A9AAABAC21AEAFB0B1B2ED
:1050F400B3B4B5B6B7B8B9BABBBCBDBEBFC0C1C204
:10510400C3C4C5C6C7C8C9CACBCCCDCECFD0D1D2F3
:10511400D3D4D5D6D7D8D9DADBDCDDDEDFE0E1E2E3
:10512400E3E4E5E6E7E8E9EAEBECEDEEEFF0F1F2D3
:10513400F3F4F5F6F7F8F9FAFBFCFDFEFFD700F2FD
:105144000011012101470170019D01B7014552522F
:105154003A00202020202020202020202020202051
:105164002020002D3E4241434B202020202020209F
:1051740020002D3E5365742053696E652020202045
:105184002020002D3E536574205371756172652093
:105194002020202020002D3E536574205472696124
:1051A4006E676C65202020002D3E536574204E6F81
:1051B40069736520202020202000726561647900D5
:1051C40041565253594E544800446576656C6F708D
:1051D40065642062793A004D617474204261676E9F
:1051E4006172610044657369676E656420666F72FD
:1051F4003A0050757264756520556E69762E0043C9
:105204006F6E7472696275746F72733A0043686189
:105214004E20464154465320534420006361726437
:10522400206C69622E20202020200041544D454CE2
:1052340020436F72702E0057616465204873752097
:105244002020202000536F667477617265204C69BA
:1052540063656E73653A0047504C20332E3020202E
:105264002020004861726477617265204C6963652F
:105274006E73653A0043432D42592D534120342E19
:105284003000496E7465726E6174696F6E616C0092
:1052940066696C652E74787400302C312C3231358B
:1052A4002C302C302C302C303A352C302C302C3106
:1052B4002C3234322C302C303A31302C312C3231E7
:1052C400352C302C302C302C303A31342C302C30DE
:1052D4002C302C302C302C3000257320534E3A25A2
:1052E40058006D616C6C6F63206661696C210064A9
:1052F4006562756700257520202020002D3E5573BA
:1053040065204B6579626F6172642020002D3E50E8
:105314006C61792066726F6D2053442020002D3E0D
:10532400436F6E6669677572652020202020002D0A
:105334003E41626F75742044657669636520200080
:105344002D3E4241434B202020202020202020209D
:10535400002D3E5365742042616E6B312020202065
:105364002020002D3E5365742042616E6B32202054
:1053740020202020002D3E5365742042616E6B3343
:10538400202020202020002D3E4465627567204D9A
:105394006F6465202020202000222A2B2C3A3B3CDD
:1053A4003D3E3F5B5D7C7F00222A2B2C2E3A3B3C0A
:1053B4003D3E3F5B5D7C7F004572726F723A206DAB
:1053C400616C6C6F63206661696C656420696E2032
:1053D4006E65770A004572726F723A206D616C6C6B
:1053E4006F63206661696C656420696E206E657701
:1053F4004F726465720A004572726F723A206D6171
:105404006C6C6F63206661696C656420696E206EE4
:0E54140065774E6F646542795265660A000046
:00000001FF
