:1000000063C1000080C100007EC100007CC100000F
:100010007AC1000078C1000076C1000074C1000000
:1000200072C1000070C100006EC100006CC1000010
:100030006AC1000068C1000066C1000064C1000020
:1000400063C10000B4C100005EC100005CC10000DB
:100050005AC1000058C1000056C1000054C1000040
:1000600052C1000050C100004EC100004CC1000050
:100070004AC1000048C1000046C1000044C1000060
:1000800042C1000040C100003EC100003CC1000070
:100090003AC1000038C1000036C1000034C1000080
:1000A00032C1000030C100002EC100002CC1000090
:1000B0002AC1000028C1000026C1000024C10000A0
:1000C00022C1000020C100001EC100001CC10000B0
:1000D0001AC1000018C1000016C1000014C10000C0
:1000E00012C1000010C100000EC100000CC10000D0
:1000F0000AC1000008C1000006C1000004C10000E0
:1001000002C1000000C10000FEC00000FCC00000F1
:10011000FAC00000F8C00000F6C00000F4C0000003
:10012000F2C00000F0C00000EEC00000ECC0000013
:10013000EAC00000E8C00000E6C00000E4C0000023
:10014000E2C00000E0C00000DEC00000DCC0000033
:10015000DAC00000D8C00000D6C00000D4C0000043
:10016000D2C00000D0C00000CEC00000CCC0000053
:10017000CAC00000C8C00000C6C00000C4C0000063
:10018000C2C00000C0C00000BEC00000BCC0000073
:10019000BAC00000B8C00000B6C00000B4C0000083
:1001A000B2C00000B0C00000AEC00000ACC0000093
:1001B000AAC00000A8C00000A6C00000A4C00000A3
:1001C000A2C00000A0C00000808386898C8F929519
:1001D000989C9FA2A5A8ABAEB0B3B6B9BCBFC1C432
:1001E000C7C9CCCED1D3D5D8DADCDEE0E2E4E6E88C
:1001F000EAECEDEFF0F2F3F5F6F7F8F9FAFBFCFCB8
:10020000FDFEFEFFFFFFFFFFFFFFFFFFFFFFFEFE04
:10021000FDFCFCFBFAF9F8F7F6F5F3F2F0EFEDEC84
:10022000EAE8E6E4E2E0DEDCDAD8D5D3D1CECCC928
:10023000C7C4C1BFBCB9B6B3B0AEABA8A5A29F9CA2
:100240009895928F8C898683807C797673706D6A9D
:100250006763605D5A5754514F4C494643403E3B9B
:10026000383633312E2C2A272523211F1D1B191721
:10027000151312100F0D0C0A0908070605040303D5
:100280000201010000000000000000000000010168
:100290000203030405060708090A0C0D0F101213C8
:1002A0001517191B1D1F212325272A2C2E31333604
:1002B000383B3E404346494C4F5154575A5D60636A
:1002C000676A6D707376797C11241FBECFEFDFE50E
:1002D000DEBFCDBF00E00CBF10E2A0E0B0E2E6E080
:1002E000F8E000E00BBF02C007900D92AA30B10702
:1002F000D9F713E2AAE0B0E201C01D92AB31B10719
:10030000E1F7ABD17EC27CCE1F920F920FB60F9257
:1003100011240BB60F922F933F938F939F93EF93DC
:10032000FF9380910C20882371F180910020882315
:1003300019F1E0911920F0911A20809103209091F9
:1003400004208E0F9F1F8093172090931820EF2F6B
:10035000FF27E55EFF4D208130E02093152030938C
:1003600016208093192090931A2020932809309307
:10037000290983EF809301098091142091E0892756
:100380008093142007C0109228091092290983EF46
:1003900080930109FF91EF919F918F913F912F9150
:1003A0000F900BBE0F900FBE0F901F9018951F92CD
:1003B0000F920FB60F9211240BB60F922F933F930B
:1003C0008F939F93EF93FF9380910B20882371F17C
:1003D00080910020882319F1E0911220F0911320E0
:1003E00080910120909102208E0F9F1F80931020FA
:1003F00090931120EF2FFF27E55EFE4D208130E026
:1004000020930E2030930F2080931220909313207E
:1004100020932A0930932B0983EF8093010980915F
:100420000D2091E0892780930D2007C010922A09A2
:1004300010922B0983EF80930109FF91EF919F9117
:100440008F913F912F910F900BBE0F900FBE0F9089
:100450001F901895613019F480930C200895623034
:1004600019F480930B200895633011F480930A20CF
:100470000895813019F410920C200895823019F4F7
:1004800010920B200895833011F410920A200895E1
:1004900081110CC0E8ECF1E0ABE1B0E284918D9306
:1004A000319682E0E83CF807C9F70895813061F49D
:1004B000E8ECF1E0ABE1B1E284918D93319682E01A
:1004C000E83CF807C9F70895833059F4E8ECF1E007
:1004D000ABE1B2E284918D93319682E0E83CF8077B
:1004E000C9F70895CF93DF93811109C0CBE1D0E222
:1004F0003FD1899381E2CB31D807D1F715C0813044
:1005000049F4CBE1D1E234D1899382E2CB31D807EF
:10051000D1F70AC0823041F4CBE1D2E229D18993EC
:1005200083E2CB31D807D1F7DF91CF910895E0E096
:10053000F8E081E080838FEF90E08093260890932D
:10054000270885E08783E0EAF0E082818360828388
:10055000789481E08093000983E3809301098FEF11
:1005600090E080932609909327090895813089F0BF
:100570003CF4811117C0609328097093290912C0B7
:10058000823061F0833071F460932E0970932F09EB
:1005900009C060932A0970932B0904C060932C0949
:1005A00070932D0983EF809301090895BC01809118
:1005B0000020882379F0CB01A0E0B0E07727662700
:1005C00024E234EF40E050E068D0209303203093E1
:1005D00004200895F8949B01220F331F40E050E05F
:1005E00060E078E488EE91E058D0209328083093BA
:1005F00029080895BC0180910020882379F0CB015F
:10060000A0E0B0E07727662724E234EF40E050E036
:1006100044D020930120309302200895F8949B0148
:10062000220F331F40E050E060E078E488EE91E074
:1006300034D020932A0830932B08089582E08093C9
:1006400050008091510081FFFCCF88ED84BF81E094
:100650008093400080936000089580E043DF81E054
:1006600017DFECDF64DF8FEF809301068093410694
:100670008093610661E081E0EDDE62E081E0EADE28
:1006800080E590E093DF88E290E0B4DF81E090E0E5
:100690008093002090930120FFCFA1E21A2EAA1B85
:1006A000BB1BFD010DC0AA1FBB1FEE1FFF1FA21722
:1006B000B307E407F50720F0A21BB30BE40BF50B1F
:1006C000661F771F881F991F1A9469F760957095A8
:1006D000809590959B01AC01BD01CF0108958F924B
:1006E0009F92AF92BF92CF92DF92EF92FF92CF9301
:1006F000DF93EC01688179818A819B8161157105A5
:100700008105910521F464E279ED8BE597E02DE117
:1007100033EF41E050E04AD049015A019B01AC015E
:10072000A7EAB1E433D06B017C01ACEEB4EFA501D4
:10073000940138D0C60ED71EE81EF91EF7FE06C07B
:1007400081E0C81AD108E10880E8F80AC882D98295
:10075000EA82FB82C6019F77DF91CF91FF90EF90F5
:10076000DF90CF90BF90AF909F908F900895B7CFBC
:1007700085E090E2B4CFA0E0B0E0809305209093B4
:100780000620A0930720B093082008952BD0A59FA2
:10079000900DB49F900DA49F800D911D112408957C
:1007A000B7FFF4CFF3DF821B930B0895052E97FB61
:1007B00016F400940FD057FD05D06FDF07FC02D070
:1007C00046F408C050954095309521953F4F4F4FC6
:1007D0005F4F089590958095709561957F4F8F4FED
:1007E0009F4F0895A29FB001B39FC001A39F700DBA
:1007F000811D1124911DB29F700D811D1124911D29
:060800000895F894FFCFFB
:0A080600016400640001000000001E
:00000001FF
