:1000000023C1000040C100003EC100003CC100000F
:100010003AC1000038C1000036C1000034C1000000
:1000200032C1000030C100002EC100002CC1000010
:100030002AC1000028C1000026C1000024C1000020
:1000400022C1000020C100001EC100001CC1000030
:100050001AC1000018C1000016C1000014C1000040
:1000600012C1000010C100000EC100000CC1000050
:100070000AC1000008C1000006C1000004C1000060
:1000800002C1000000C10000FEC00000FCC0000072
:10009000FAC00000F8C00000F6C00000F4C0000084
:1000A000F2C00000F0C00000EEC00000ECC0000094
:1000B000EAC00000E8C00000E6C00000E4C00000A4
:1000C000E2C00000E0C00000DEC00000DCC00000B4
:1000D000DAC00000D8C00000D6C00000D4C00000C4
:1000E000D2C00000D0C00000CEC00000CCC00000D4
:1000F000CAC00000C8C00000C6C00000C4C00000E4
:10010000C2C00000C0C00000BEC00000BCC00000F3
:10011000BAC00000B8C00000B6C00000B4C0000003
:10012000B2C00000B0C00000AEC00000ACC0000013
:10013000AAC00000A8C00000A6C00000A4C0000023
:10014000A2C00000A0C000009EC000009CC0000033
:100150009AC0000098C0000096C0000094C0000043
:1001600092C0000090C000008EC000008CC0000053
:100170008AC0000088C0000086C0000084C0000063
:1001800082C0000080C000007EC000007CC0000073
:100190007AC0000078C0000076C0000074C0000083
:1001A00072C0000071C000006EC000006CC0000092
:1001B0006AC0000068C0000066C0000064C00000A3
:1001C00062C0000060C000003F3F3F3F3F3F3F3FF5
:1001D0003F3F3F3F3F3F3F3F3F3F3F3F3F71313F0B
:1001E0003F3F7A736177323F3F6378646534333FD2
:1001F0003F2076667472353F3F6E62686779363F9E
:100200003F3F6D6A7537383F3F3F6B696F30393F0D
:100210003F3F3F6C3F703F3F3F3F3F3F3F3F3F3F90
:100220003F3F3F3F3F3F3F3F3F3F3F3F3F3F3F3FDE
:100230003F3F3F3F3F3F3F3F3F3F3F3F3F3F3F3FCE
:100240003F3F3F3F3F3F3F3F11241FBECFEFDFE522
:10025000DEBFCDBF00E00CBF10E2A0E0B0E2EAE1FB
:10026000FCE000E00BBF02C007900D92A433B10781
:10027000D9F710E2A4E3B0E201C01D92AD33B1079B
:10028000E1F785D1C8C4BCCE1F920F920FB60F9272
:1002900011242F933F938F939F938091A80684FD01
:1002A0005EC08091362081110CC08091A80682FD2D
:1002B0002AC081E08093362010923A201092382094
:1002C0004EC020913A202830A0F48091A80681FFEA
:1002D0000CC03091382081E090E0022E01C0880FE0
:1002E0000A94EAF7382B309338202F5F20933A2076
:1002F00036C0283021F489E080933A2030C0109233
:10030000362010923A2080913820811105C0109239
:10031000382010923B2023C080913820803F21F468
:1003200081E0809337201BC0909138208091372046
:10033000923121F090913820993549F4811104C00F
:1003400081E0809335200BC01092352002C08823B5
:1003500019F01092372003C081E080933B209F91D9
:100360008F913F912F910F900FBE0F901F90189576
:1003700082E0809350008091510081FFFCCF88ED96
:1003800084BF81E080934000809360000895E82F4F
:10039000F0E0E853FE4FE491809135208111E05266
:1003A000809134208E1721F0E09334208E2F089511
:1003B00080E0089580913B208823E1F310923B2058
:1003C0008091382008951092362010923820109293
:1003D0003A20E0EAF6E089EF818388E1818B8AE1C7
:1003E000828B84E083878187E0EAF0E0828181600C
:1003F0008283089581E0E0E0F6E086838FE891E073
:100400000197F1F700C00000089581E0E0E0F6E018
:1004100085838FE891E00197F1F700C0000008950F
:10042000E0E2F6E0848382E0E0E0F6E085838AE0C3
:100430008A95F1F700C082E0E0E0F6E086838AE08A
:100440008A95F1F700C00895D5DF81E0E9DF8FE3F9
:100450009CE90197F1F700C0000082E0E1DF8FE343
:100460009CE90197F1F700C000000895C3DF82E026
:10047000D7DF8FE39CE90197F1F700C000000895F2
:10048000A2E0B0E0E5E4F2E0E8C06A838983B2DF8D
:1004900089816A81813011F080E001C080E4860F9B
:1004A0008068BEDF2296E2E0F1C060E080E0E8CF45
:1004B00060E081E0E5CFA1E0B0E0E0E6F2E0CDC0B1
:1004C0008983A3DF8981ACDF2196E2E0DFC0A1E070
:1004D000B0E0ECE6F2E0BFC08C01615039F0F80109
:1004E00081918F016983E7DF6981F7CF2196E4E08D
:1004F000CBC0CF93DF93EC018991882311F0DBDF30
:10050000FBCFDF91CF910895CF93DF93EC01FE01F4
:100510008491882319F0CFDF2196F9CFDF91CF9115
:100520000895E0E2F6E014828FEF8183E0E0F6E0E8
:1005300087E0868381832FEF83ED90E32150804015
:100540009040E1F700C0000088E36ADF8FE891E0A7
:100550000197F1F700C000008CE062DF8FE891E0C6
:100560000197F1F700C0000081E05ADF8FE39FE1BF
:100570000197F1F700C0000086E052DF8FE39FE1B2
:100580000197F1F700C0000084E14ADF5DCFA4E1EC
:10059000B1E0ECECF2E05AC0C4DF56DF86DF84E164
:1005A00090E2A7DF10DF7894E3DE8E011395F80167
:1005B00011821082B12C8AE1C82E80E2D82ECE01A1
:1005C00001967C0180913B208823B9F0F3DE8A35C7
:1005D00029F4F80111821082B12C0FC0863611F473
:1005E000BA9407C0D4DEF801EB0DF11D80838111B0
:1005F000B394F801EB0DF11D108257DF1F930F9399
:10060000DF92CF92FF92EF9250D0C70172DF0F902E
:100610000F900F900F900F900F90809135208823AE
:1006200021F046DF60E270E203C042DF66E270E282
:10063000C70134D0C7015DDFC5CF2F923F924F92E3
:100640005F926F927F928F929F92AF92BF92CF9262
:10065000DF92EF92FF920F931F93CF93DF93CDB76B
:10066000DEB7CA1BDB0BCDBFDEBF19942A883988E1
:1006700048885F846E847D848C849B84AA84B9843A
:10068000C884DF80EE80FD800C811B81AA81B98146
:10069000CE0FD11DCDBFDEBFED010895FB01DC0102
:1006A00001900D920020E1F708950F931F93CF93CF
:1006B000DF93CDB7DEB72E97CDBFDEBF0E891F8982
:1006C00086E08C8309831A838FEF9FE78D839E8357
:1006D000AE01465E5F4F688D798DCE0101960DD0DB
:1006E000EF81F885E00FF11F10822E96CDBFDEBF9F
:1006F000DF91CF911F910F9108952F923F924F92CA
:100700005F926F927F928F929F92AF92BF92CF92A1
:10071000DF92EF92FF920F931F93CF93DF93CDB7AA
:10072000DEB72C97CDBFDEBF7C016B018A01FC01D7
:1007300016821782838181FFB0C1CE0101964C01E0
:10074000F7019381F60193FD859193FF81916F01EC
:10075000882309F49EC1853239F493FD859193FF76
:1007600081916F01853221F4B70190E0C4D1E8CFC7
:10077000512C312C20E02032A0F48B3269F030F47F
:10078000803259F0833269F420612CC08D3239F007
:10079000803339F4216026C02260246023C02860A1
:1007A00021C027FD27C030ED380F3A3078F426FFFE
:1007B00006C0FAE05F9E300D1124532E13C08AE06C
:1007C000389E300D1124332E20620CC08E3221F45D
:1007D00026FD5FC1206406C08C3611F4206802C07B
:1007E000883641F4F60193FD859193FF81916F0165
:1007F0008111C1CF982F9F7D9554933028F40C5FC1
:100800001F4FFFE3F9830DC0833631F0833771F05A
:10081000833509F057C021C0F801808189830E5FBC
:100820001F4F44244394512C540114C03801F2E06A
:100830006F0E711CF801A080B18026FF03C0652DEA
:1008400070E002C06FEF7FEFC5012C8749D12C010A
:1008500083012C852F77222E16C03801F2E06F0E0F
:10086000711CF801A080B18026FF03C0652D70E0E7
:1008700002C06FEF7FEFC5012C8727D12C012C859B
:100880002068222E830123FC19C0832D90E0481696
:100890005906A0F4B70180E290E02DD13A94F5CF4B
:1008A000F50127FC859127FE81915F01B70190E05A
:1008B00022D131103A94F1E04F1A510841145104F9
:1008C00079F7DEC0843611F0893631F5F80127FF5B
:1008D00007C060817181828193810C5F1F4F08C0C6
:1008E00060817181882777FD8095982F0E5F1F4F5B
:1008F0002F76B22E97FF09C09095809570956195DF
:100900007F4F8F4F9F4F2068B22E2AE030E0A40126
:1009100024D1A82EA81843C0853729F42F7EB22EE3
:100920002AE030E025C0F22FF97FBF2E8F36C1F0CC
:1009300018F4883579F0ADC0803719F0883721F088
:10094000A8C02F2F2061B22EB4FE0DC08B2D846065
:10095000B82E09C024FF0AC09F2F9660B92E06C08A
:1009600028E030E005C020E130E002C020E132E0C4
:10097000F801B7FE07C060817181828193810C5FAD
:100980001F4F06C06081718180E090E00E5F1F4FB5
:10099000A401E3D0A82EA818FB2DFF77BF2EB6FE2A
:1009A0000BC02B2D2E7FA51450F4B4FE0AC0B2FC50
:1009B00008C02B2D2E7E05C07A2C2B2D03C07A2C3F
:1009C00001C0752C24FF0DC0FE01EA0DF11D8081D0
:1009D000803311F4297E09C022FF06C073947394FA
:1009E00004C0822F867809F0739423FD12C020FF83
:1009F00006C05A2C731418F4530C5718732C731424
:100A000060F4B70180E290E02C8775D073942C8558
:100A1000F6CF731410F4371801C0312C24FF11C025
:100A2000B70180E390E02C8766D02C8522FF16C0AA
:100A300021FF03C088E590E002C088E790E0B7019D
:100A40000CC0822F867851F021FD02C080E201C0E7
:100A50008BE227FD8DE2B70190E04DD0A51430F474
:100A6000B70180E390E047D05A94F8CFAA94F401FC
:100A7000EA0DF11D8081B70190E03DD0A110F6CFC5
:100A8000332009F45DCEB70180E290E034D03A948F
:100A9000F7CFF7018681978102C08FEF9FEF2C96E9
:100AA000CDBFDEBFDF91CF911F910F91FF90EF90EF
:100AB000DF90CF90BF90AF909F908F907F906F907E
:100AC0005F904F903F902F900895FC0105906150EA
:100AD00070400110D8F7809590958E0F9F1F089554
:100AE000FC016150704001900110D8F780959095FD
:100AF0008E0F9F1F08950F931F93CF93DF93182F8F
:100B0000092FEB018B8181FD03C08FEF9FEF20C088
:100B100082FF10C04E815F812C813D8142175307B7
:100B20007CF4E881F9819F012F5F3F4F288339834F
:100B3000108306C0E885F985812F1995892B29F73F
:100B40002E813F812F5F3F4F2E833F83812F902F38
:100B5000DF91CF911F910F910895FA01AA272830B4
:100B600051F1203181F1E8946F936E7F6E5F7F4F7A
:100B70008F4F9F4FAF4FB1E03ED0B4E03CD0670FF6
:100B8000781F891F9A1FA11D680F791F8A1F911D49
:100B9000A11D6A0F711D811D911DA11D20D009F499
:100BA00068943F912AE0269F11243019305D3193DB
:100BB000DEF6CF010895462F4770405D4193B3E0C4
:100BC0000FD0C9F7F6CF462F4F70405D4A3318F06B
:100BD000495D31FD4052419302D0A9F7EACFB4E01C
:100BE000A6959795879577956795BA95C9F70097D4
:100BF0006105710508959B01AC010A2E0694579575
:100C0000479537952795BA95C9F7620F731F841FCB
:0A0C1000951FA01D0895F894FFCF72
:100C1A0020202020202020202020202020202020CA
:100C2A0000000000726561647900252D323073007E
:100C3A0053484946540020202020202020202020EC
:040C4A002020000066
:00000001FF
